{
	"return.sol": {
		"Returns": {
			"abi": [
				{
					"inputs": [],
					"name": "initStudent1",
					"outputs": [],
					"stateMutability": "nonpayable",
					"type": "function"
				},
				{
					"inputs": [],
					"name": "initStudent2",
					"outputs": [],
					"stateMutability": "nonpayable",
					"type": "function"
				},
				{
					"inputs": [],
					"name": "initStudent3",
					"outputs": [],
					"stateMutability": "nonpayable",
					"type": "function"
				},
				{
					"inputs": [],
					"name": "initStudent4",
					"outputs": [],
					"stateMutability": "nonpayable",
					"type": "function"
				},
				{
					"inputs": [],
					"name": "returnMultiple",
					"outputs": [
						{
							"internalType": "uint256",
							"name": "",
							"type": "uint256"
						},
						{
							"internalType": "bool",
							"name": "",
							"type": "bool"
						},
						{
							"internalType": "uint256[3]",
							"name": "",
							"type": "uint256[3]"
						}
					],
					"stateMutability": "pure",
					"type": "function"
				},
				{
					"inputs": [],
					"name": "returnNamed",
					"outputs": [
						{
							"internalType": "uint256",
							"name": "_number",
							"type": "uint256"
						},
						{
							"internalType": "bool",
							"name": "_bool",
							"type": "bool"
						},
						{
							"internalType": "uint256[3]",
							"name": "_array",
							"type": "uint256[3]"
						}
					],
					"stateMutability": "pure",
					"type": "function"
				},
				{
					"inputs": [],
					"name": "returnNamed2",
					"outputs": [
						{
							"internalType": "uint256",
							"name": "_number",
							"type": "uint256"
						},
						{
							"internalType": "bool",
							"name": "_bool",
							"type": "bool"
						},
						{
							"internalType": "uint256[3]",
							"name": "_array",
							"type": "uint256[3]"
						}
					],
					"stateMutability": "pure",
					"type": "function"
				}
			],
			"devdoc": {
				"kind": "dev",
				"methods": {},
				"version": 1
			},
			"evm": {
				"assembly": "    /* \"return.sol\":61:1235  contract Returns {... */\n  mstore(0x40, 0x80)\n  callvalue\n  dup1\n  iszero\n  tag_1\n  jumpi\n  0x00\n  dup1\n  revert\ntag_1:\n  pop\n  dataSize(sub_0)\n  dup1\n  dataOffset(sub_0)\n  0x00\n  codecopy\n  0x00\n  return\nstop\n\nsub_0: assembly {\n        /* \"return.sol\":61:1235  contract Returns {... */\n      mstore(0x40, 0x80)\n      callvalue\n      dup1\n      iszero\n      tag_1\n      jumpi\n      0x00\n      dup1\n      revert\n    tag_1:\n      pop\n      jumpi(tag_2, lt(calldatasize, 0x04))\n      shr(0xe0, calldataload(0x00))\n      dup1\n      0x8552dc08\n      gt\n      tag_10\n      jumpi\n      dup1\n      0x8552dc08\n      eq\n      tag_6\n      jumpi\n      dup1\n      0x9ebb8d20\n      eq\n      tag_7\n      jumpi\n      dup1\n      0xa8b63e6f\n      eq\n      tag_8\n      jumpi\n      dup1\n      0xe61e4008\n      eq\n      tag_9\n      jumpi\n      jump(tag_2)\n    tag_10:\n      dup1\n      0x1a8d7dc3\n      eq\n      tag_3\n      jumpi\n      dup1\n      0x3dece511\n      eq\n      tag_4\n      jumpi\n      dup1\n      0x5a4236b1\n      eq\n      tag_5\n      jumpi\n    tag_2:\n      0x00\n      dup1\n      revert\n        /* \"return.sol\":832:1039  function initStudent2 () external {... */\n    tag_3:\n      tag_11\n      tag_12\n      jump\t// in\n    tag_11:\n      stop\n        /* \"return.sol\":224:411  function returnNamed() public pure returns(uint256 _number, bool _bool, uint256[3] memory _array){... */\n    tag_4:\n      tag_13\n      tag_14\n      jump\t// in\n    tag_13:\n      mload(0x40)\n      tag_15\n      swap4\n      swap3\n      swap2\n      swap1\n      tag_16\n      jump\t// in\n    tag_15:\n      mload(0x40)\n      dup1\n      swap2\n      sub\n      swap1\n      return\n        /* \"return.sol\":1047:1128  function initStudent3 () external {... */\n    tag_5:\n      tag_17\n      tag_18\n      jump\t// in\n    tag_17:\n      stop\n        /* \"return.sol\":419:569  function returnNamed2() public pure returns(uint256 _number, bool _bool, uint256[3] memory _array){... */\n    tag_6:\n      tag_19\n      tag_20\n      jump\t// in\n    tag_19:\n      mload(0x40)\n      tag_21\n      swap4\n      swap3\n      swap2\n      swap1\n      tag_16\n      jump\t// in\n    tag_21:\n      mload(0x40)\n      dup1\n      swap2\n      sub\n      swap1\n      return\n        /* \"return.sol\":1136:1232  function initStudent4 () external {... */\n    tag_7:\n      tag_22\n      tag_23\n      jump\t// in\n    tag_22:\n      stop\n        /* \"return.sol\":677:824  function initStudent1 () external {... */\n    tag_8:\n      tag_24\n      tag_25\n      jump\t// in\n    tag_24:\n      stop\n        /* \"return.sol\":85:216  function returnMultiple() public pure returns(uint256, bool, uint256[3] memory){... */\n    tag_9:\n      tag_26\n      tag_27\n      jump\t// in\n    tag_26:\n      mload(0x40)\n      tag_28\n      swap4\n      swap3\n      swap2\n      swap1\n      tag_16\n      jump\t// in\n    tag_28:\n      mload(0x40)\n      dup1\n      swap2\n      sub\n      swap1\n      return\n        /* \"return.sol\":832:1039  function initStudent2 () external {... */\n    tag_12:\n        /* \"return.sol\":890:895  11111 */\n      0x2b67\n        /* \"return.sol\":877:884  student */\n      0x00\n        /* \"return.sol\":877:887  student.id */\n      dup1\n      add\n        /* \"return.sol\":877:895  student.id = 11111 */\n      dup2\n      swap1\n      sstore\n      pop\n        /* \"return.sol\":922:927  22222 */\n      0x56ce\n        /* \"return.sol\":906:913  student */\n      0x00\n        /* \"return.sol\":906:919  student.score */\n      0x01\n      add\n        /* \"return.sol\":906:927  student.score = 22222 */\n      dup2\n      swap1\n      sstore\n      pop\n        /* \"return.sol\":938:962  Student storage _student */\n      0x00\n        /* \"return.sol\":997:1000  300 */\n      0x012c\n        /* \"return.sol\":983:991  _student */\n      dup2\n        /* \"return.sol\":983:994  _student.id */\n      0x00\n      add\n        /* \"return.sol\":983:1000  _student.id = 300 */\n      dup2\n      swap1\n      sstore\n      pop\n        /* \"return.sol\":1028:1031  400 */\n      0x0190\n        /* \"return.sol\":1011:1019  _student */\n      dup2\n        /* \"return.sol\":1011:1025  _student.score */\n      0x01\n      add\n        /* \"return.sol\":1011:1031  _student.score = 400 */\n      dup2\n      swap1\n      sstore\n      pop\n        /* \"return.sol\":866:1039  {... */\n      pop\n        /* \"return.sol\":832:1039  function initStudent2 () external {... */\n      jump\t// out\n        /* \"return.sol\":224:411  function returnNamed() public pure returns(uint256 _number, bool _bool, uint256[3] memory _array){... */\n    tag_14:\n        /* \"return.sol\":267:282  uint256 _number */\n      0x00\n        /* \"return.sol\":284:294  bool _bool */\n      dup1\n        /* \"return.sol\":296:320  uint256[3] memory _array */\n      tag_30\n      tag_31\n      jump\t// in\n    tag_30:\n        /* \"return.sol\":342:343  2 */\n      0x02\n        /* \"return.sol\":332:343  _number = 2 */\n      swap3\n      pop\n        /* \"return.sol\":362:367  false */\n      0x00\n        /* \"return.sol\":354:367  _bool = false */\n      swap2\n      pop\n        /* \"return.sol\":378:403  _array = [uint256(3),2,1] */\n      mload(0x40)\n      dup1\n      0x60\n      add\n      0x40\n      mstore\n      dup1\n        /* \"return.sol\":396:397  3 */\n      0x03\n        /* \"return.sol\":378:403  _array = [uint256(3),2,1] */\n      dup2\n      mstore\n      0x20\n      add\n        /* \"return.sol\":399:400  2 */\n      0x02\n        /* \"return.sol\":378:403  _array = [uint256(3),2,1] */\n      dup2\n      mstore\n      0x20\n      add\n        /* \"return.sol\":401:402  1 */\n      0x01\n        /* \"return.sol\":378:403  _array = [uint256(3),2,1] */\n      dup2\n      mstore\n      pop\n      swap1\n      pop\n        /* \"return.sol\":224:411  function returnNamed() public pure returns(uint256 _number, bool _bool, uint256[3] memory _array){... */\n      swap1\n      swap2\n      swap3\n      jump\t// out\n        /* \"return.sol\":1047:1128  function initStudent3 () external {... */\n    tag_18:\n        /* \"return.sol\":1102:1120  Student(520, 1314) */\n      mload(0x40)\n      dup1\n      0x40\n      add\n      0x40\n      mstore\n      dup1\n        /* \"return.sol\":1110:1113  520 */\n      0x0208\n        /* \"return.sol\":1102:1120  Student(520, 1314) */\n      dup2\n      mstore\n      0x20\n      add\n        /* \"return.sol\":1115:1119  1314 */\n      0x0522\n        /* \"return.sol\":1102:1120  Student(520, 1314) */\n      dup2\n      mstore\n      pop\n        /* \"return.sol\":1092:1099  student */\n      0x00\n        /* \"return.sol\":1092:1120  student = Student(520, 1314) */\n      dup1\n      dup3\n      add\n      mload\n      dup2\n      0x00\n      add\n      sstore\n      0x20\n      dup3\n      add\n      mload\n      dup2\n      0x01\n      add\n      sstore\n      swap1\n      pop\n      pop\n        /* \"return.sol\":1047:1128  function initStudent3 () external {... */\n      jump\t// out\n        /* \"return.sol\":419:569  function returnNamed2() public pure returns(uint256 _number, bool _bool, uint256[3] memory _array){... */\n    tag_20:\n        /* \"return.sol\":463:478  uint256 _number */\n      0x00\n        /* \"return.sol\":480:490  bool _bool */\n      dup1\n        /* \"return.sol\":492:516  uint256[3] memory _array */\n      tag_34\n      tag_31\n      jump\t// in\n    tag_34:\n        /* \"return.sol\":535:536  1 */\n      0x01\n        /* \"return.sol\":538:542  true */\n      dup1\n        /* \"return.sol\":528:561  return(1, true, [uint256(1),2,5]) */\n      mload(0x40)\n      dup1\n      0x60\n      add\n      0x40\n      mstore\n      dup1\n        /* \"return.sol\":553:554  1 */\n      0x01\n        /* \"return.sol\":528:561  return(1, true, [uint256(1),2,5]) */\n      dup2\n      mstore\n      0x20\n      add\n        /* \"return.sol\":556:557  2 */\n      0x02\n        /* \"return.sol\":528:561  return(1, true, [uint256(1),2,5]) */\n      dup2\n      mstore\n      0x20\n      add\n        /* \"return.sol\":558:559  5 */\n      0x05\n        /* \"return.sol\":528:561  return(1, true, [uint256(1),2,5]) */\n      dup2\n      mstore\n      pop\n      swap3\n      pop\n      swap3\n      pop\n      swap3\n      pop\n        /* \"return.sol\":419:569  function returnNamed2() public pure returns(uint256 _number, bool _bool, uint256[3] memory _array){... */\n      swap1\n      swap2\n      swap3\n      jump\t// out\n        /* \"return.sol\":1136:1232  function initStudent4 () external {... */\n    tag_23:\n        /* \"return.sol\":1191:1224  Student({ id: 520, score: 1314 }) */\n      mload(0x40)\n      dup1\n      0x40\n      add\n      0x40\n      mstore\n      dup1\n        /* \"return.sol\":1205:1208  520 */\n      0x0208\n        /* \"return.sol\":1191:1224  Student({ id: 520, score: 1314 }) */\n      dup2\n      mstore\n      0x20\n      add\n        /* \"return.sol\":1217:1221  1314 */\n      0x0522\n        /* \"return.sol\":1191:1224  Student({ id: 520, score: 1314 }) */\n      dup2\n      mstore\n      pop\n        /* \"return.sol\":1181:1188  student */\n      0x00\n        /* \"return.sol\":1181:1224  student = Student({ id: 520, score: 1314 }) */\n      dup1\n      dup3\n      add\n      mload\n      dup2\n      0x00\n      add\n      sstore\n      0x20\n      dup3\n      add\n      mload\n      dup2\n      0x01\n      add\n      sstore\n      swap1\n      pop\n      pop\n        /* \"return.sol\":1136:1232  function initStudent4 () external {... */\n      jump\t// out\n        /* \"return.sol\":677:824  function initStudent1 () external {... */\n    tag_25:\n        /* \"return.sol\":722:746  Student storage _student */\n      0x00\n        /* \"return.sol\":781:784  520 */\n      0x0208\n        /* \"return.sol\":767:775  _student */\n      dup2\n        /* \"return.sol\":767:778  _student.id */\n      0x00\n      add\n        /* \"return.sol\":767:784  _student.id = 520 */\n      dup2\n      swap1\n      sstore\n      pop\n        /* \"return.sol\":812:816  1314 */\n      0x0522\n        /* \"return.sol\":795:803  _student */\n      dup2\n        /* \"return.sol\":795:809  _student.score */\n      0x01\n      add\n        /* \"return.sol\":795:816  _student.score = 1314 */\n      dup2\n      swap1\n      sstore\n      pop\n        /* \"return.sol\":711:824  {... */\n      pop\n        /* \"return.sol\":677:824  function initStudent1 () external {... */\n      jump\t// out\n        /* \"return.sol\":85:216  function returnMultiple() public pure returns(uint256, bool, uint256[3] memory){... */\n    tag_27:\n        /* \"return.sol\":131:138  uint256 */\n      0x00\n        /* \"return.sol\":140:144  bool */\n      dup1\n        /* \"return.sol\":146:163  uint256[3] memory */\n      tag_38\n      tag_31\n      jump\t// in\n    tag_38:\n        /* \"return.sol\":182:183  1 */\n      0x01\n        /* \"return.sol\":185:189  true */\n      dup1\n        /* \"return.sol\":175:208  return(1, true, [uint256(1),2,5]) */\n      mload(0x40)\n      dup1\n      0x60\n      add\n      0x40\n      mstore\n      dup1\n        /* \"return.sol\":200:201  1 */\n      0x01\n        /* \"return.sol\":175:208  return(1, true, [uint256(1),2,5]) */\n      dup2\n      mstore\n      0x20\n      add\n        /* \"return.sol\":203:204  2 */\n      0x02\n        /* \"return.sol\":175:208  return(1, true, [uint256(1),2,5]) */\n      dup2\n      mstore\n      0x20\n      add\n        /* \"return.sol\":205:206  5 */\n      0x05\n        /* \"return.sol\":175:208  return(1, true, [uint256(1),2,5]) */\n      dup2\n      mstore\n      pop\n      swap3\n      pop\n      swap3\n      pop\n      swap3\n      pop\n        /* \"return.sol\":85:216  function returnMultiple() public pure returns(uint256, bool, uint256[3] memory){... */\n      swap1\n      swap2\n      swap3\n      jump\t// out\n    tag_31:\n      mload(0x40)\n      dup1\n      0x60\n      add\n      0x40\n      mstore\n      dup1\n      0x03\n      swap1\n      0x20\n      dup3\n      mul\n      dup1\n      calldatasize\n      dup4\n      calldatacopy\n      dup1\n      dup3\n      add\n      swap2\n      pop\n      pop\n      swap1\n      pop\n      pop\n      swap1\n      jump\t// out\n        /* \"#utility.yul\":7:84   */\n    tag_40:\n        /* \"#utility.yul\":44:51   */\n      0x00\n        /* \"#utility.yul\":73:78   */\n      dup2\n        /* \"#utility.yul\":62:78   */\n      swap1\n      pop\n        /* \"#utility.yul\":7:84   */\n      swap2\n      swap1\n      pop\n      jump\t// out\n        /* \"#utility.yul\":90:208   */\n    tag_41:\n        /* \"#utility.yul\":177:201   */\n      tag_54\n        /* \"#utility.yul\":195:200   */\n      dup2\n        /* \"#utility.yul\":177:201   */\n      tag_40\n      jump\t// in\n    tag_54:\n        /* \"#utility.yul\":172:175   */\n      dup3\n        /* \"#utility.yul\":165:202   */\n      mstore\n        /* \"#utility.yul\":90:208   */\n      pop\n      pop\n      jump\t// out\n        /* \"#utility.yul\":214:304   */\n    tag_42:\n        /* \"#utility.yul\":248:255   */\n      0x00\n        /* \"#utility.yul\":291:296   */\n      dup2\n        /* \"#utility.yul\":284:297   */\n      iszero\n        /* \"#utility.yul\":277:298   */\n      iszero\n        /* \"#utility.yul\":266:298   */\n      swap1\n      pop\n        /* \"#utility.yul\":214:304   */\n      swap2\n      swap1\n      pop\n      jump\t// out\n        /* \"#utility.yul\":310:419   */\n    tag_43:\n        /* \"#utility.yul\":391:412   */\n      tag_57\n        /* \"#utility.yul\":406:411   */\n      dup2\n        /* \"#utility.yul\":391:412   */\n      tag_42\n      jump\t// in\n    tag_57:\n        /* \"#utility.yul\":386:389   */\n      dup3\n        /* \"#utility.yul\":379:413   */\n      mstore\n        /* \"#utility.yul\":310:419   */\n      pop\n      pop\n      jump\t// out\n        /* \"#utility.yul\":425:529   */\n    tag_44:\n        /* \"#utility.yul\":490:496   */\n      0x00\n        /* \"#utility.yul\":518:522   */\n      0x03\n        /* \"#utility.yul\":508:522   */\n      swap1\n      pop\n        /* \"#utility.yul\":425:529   */\n      swap2\n      swap1\n      pop\n      jump\t// out\n        /* \"#utility.yul\":535:678   */\n    tag_45:\n        /* \"#utility.yul\":632:643   */\n      0x00\n        /* \"#utility.yul\":669:672   */\n      dup2\n        /* \"#utility.yul\":654:672   */\n      swap1\n      pop\n        /* \"#utility.yul\":535:678   */\n      swap3\n      swap2\n      pop\n      pop\n      jump\t// out\n        /* \"#utility.yul\":684:782   */\n    tag_46:\n        /* \"#utility.yul\":749:753   */\n      0x00\n        /* \"#utility.yul\":772:775   */\n      dup2\n        /* \"#utility.yul\":764:775   */\n      swap1\n      pop\n        /* \"#utility.yul\":684:782   */\n      swap2\n      swap1\n      pop\n      jump\t// out\n        /* \"#utility.yul\":788:896   */\n    tag_47:\n        /* \"#utility.yul\":865:889   */\n      tag_62\n        /* \"#utility.yul\":883:888   */\n      dup2\n        /* \"#utility.yul\":865:889   */\n      tag_40\n      jump\t// in\n    tag_62:\n        /* \"#utility.yul\":860:863   */\n      dup3\n        /* \"#utility.yul\":853:890   */\n      mstore\n        /* \"#utility.yul\":788:896   */\n      pop\n      pop\n      jump\t// out\n        /* \"#utility.yul\":902:1081   */\n    tag_48:\n        /* \"#utility.yul\":971:981   */\n      0x00\n        /* \"#utility.yul\":992:1038   */\n      tag_64\n        /* \"#utility.yul\":1034:1037   */\n      dup4\n        /* \"#utility.yul\":1026:1032   */\n      dup4\n        /* \"#utility.yul\":992:1038   */\n      tag_47\n      jump\t// in\n    tag_64:\n        /* \"#utility.yul\":1070:1074   */\n      0x20\n        /* \"#utility.yul\":1065:1068   */\n      dup4\n        /* \"#utility.yul\":1061:1075   */\n      add\n        /* \"#utility.yul\":1047:1075   */\n      swap1\n      pop\n        /* \"#utility.yul\":902:1081   */\n      swap3\n      swap2\n      pop\n      pop\n      jump\t// out\n        /* \"#utility.yul\":1087:1198   */\n    tag_49:\n        /* \"#utility.yul\":1155:1159   */\n      0x00\n        /* \"#utility.yul\":1187:1191   */\n      0x20\n        /* \"#utility.yul\":1182:1185   */\n      dup3\n        /* \"#utility.yul\":1178:1192   */\n      add\n        /* \"#utility.yul\":1170:1192   */\n      swap1\n      pop\n        /* \"#utility.yul\":1087:1198   */\n      swap2\n      swap1\n      pop\n      jump\t// out\n        /* \"#utility.yul\":1236:1930   */\n    tag_50:\n        /* \"#utility.yul\":1372:1424   */\n      tag_67\n        /* \"#utility.yul\":1418:1423   */\n      dup2\n        /* \"#utility.yul\":1372:1424   */\n      tag_44\n      jump\t// in\n    tag_67:\n        /* \"#utility.yul\":1440:1524   */\n      tag_68\n        /* \"#utility.yul\":1517:1523   */\n      dup2\n        /* \"#utility.yul\":1512:1515   */\n      dup5\n        /* \"#utility.yul\":1440:1524   */\n      tag_45\n      jump\t// in\n    tag_68:\n        /* \"#utility.yul\":1433:1524   */\n      swap3\n      pop\n        /* \"#utility.yul\":1548:1602   */\n      tag_69\n        /* \"#utility.yul\":1596:1601   */\n      dup3\n        /* \"#utility.yul\":1548:1602   */\n      tag_46\n      jump\t// in\n    tag_69:\n        /* \"#utility.yul\":1625:1632   */\n      dup1\n        /* \"#utility.yul\":1656:1657   */\n      0x00\n        /* \"#utility.yul\":1641:1923   */\n    tag_70:\n        /* \"#utility.yul\":1666:1672   */\n      dup4\n        /* \"#utility.yul\":1663:1664   */\n      dup2\n        /* \"#utility.yul\":1660:1673   */\n      lt\n        /* \"#utility.yul\":1641:1923   */\n      iszero\n      tag_72\n      jumpi\n        /* \"#utility.yul\":1742:1748   */\n      dup2\n        /* \"#utility.yul\":1736:1749   */\n      mload\n        /* \"#utility.yul\":1769:1832   */\n      tag_73\n        /* \"#utility.yul\":1828:1831   */\n      dup8\n        /* \"#utility.yul\":1813:1826   */\n      dup3\n        /* \"#utility.yul\":1769:1832   */\n      tag_48\n      jump\t// in\n    tag_73:\n        /* \"#utility.yul\":1762:1832   */\n      swap7\n      pop\n        /* \"#utility.yul\":1855:1913   */\n      tag_74\n        /* \"#utility.yul\":1906:1912   */\n      dup4\n        /* \"#utility.yul\":1855:1913   */\n      tag_49\n      jump\t// in\n    tag_74:\n        /* \"#utility.yul\":1845:1913   */\n      swap3\n      pop\n        /* \"#utility.yul\":1701:1923   */\n      pop\n        /* \"#utility.yul\":1688:1689   */\n      0x01\n        /* \"#utility.yul\":1685:1686   */\n      dup2\n        /* \"#utility.yul\":1681:1690   */\n      add\n        /* \"#utility.yul\":1676:1690   */\n      swap1\n      pop\n        /* \"#utility.yul\":1641:1923   */\n      jump(tag_70)\n    tag_72:\n        /* \"#utility.yul\":1645:1659   */\n      pop\n        /* \"#utility.yul\":1348:1930   */\n      pop\n      pop\n      pop\n        /* \"#utility.yul\":1236:1930   */\n      pop\n      pop\n      jump\t// out\n        /* \"#utility.yul\":1936:2459   */\n    tag_16:\n        /* \"#utility.yul\":2125:2129   */\n      0x00\n        /* \"#utility.yul\":2163:2166   */\n      0xa0\n        /* \"#utility.yul\":2152:2161   */\n      dup3\n        /* \"#utility.yul\":2148:2167   */\n      add\n        /* \"#utility.yul\":2140:2167   */\n      swap1\n      pop\n        /* \"#utility.yul\":2177:2248   */\n      tag_76\n        /* \"#utility.yul\":2245:2246   */\n      0x00\n        /* \"#utility.yul\":2234:2243   */\n      dup4\n        /* \"#utility.yul\":2230:2247   */\n      add\n        /* \"#utility.yul\":2221:2227   */\n      dup7\n        /* \"#utility.yul\":2177:2248   */\n      tag_41\n      jump\t// in\n    tag_76:\n        /* \"#utility.yul\":2258:2324   */\n      tag_77\n        /* \"#utility.yul\":2320:2322   */\n      0x20\n        /* \"#utility.yul\":2309:2318   */\n      dup4\n        /* \"#utility.yul\":2305:2323   */\n      add\n        /* \"#utility.yul\":2296:2302   */\n      dup6\n        /* \"#utility.yul\":2258:2324   */\n      tag_43\n      jump\t// in\n    tag_77:\n        /* \"#utility.yul\":2334:2452   */\n      tag_78\n        /* \"#utility.yul\":2448:2450   */\n      0x40\n        /* \"#utility.yul\":2437:2446   */\n      dup4\n        /* \"#utility.yul\":2433:2451   */\n      add\n        /* \"#utility.yul\":2424:2430   */\n      dup5\n        /* \"#utility.yul\":2334:2452   */\n      tag_50\n      jump\t// in\n    tag_78:\n        /* \"#utility.yul\":1936:2459   */\n      swap5\n      swap4\n      pop\n      pop\n      pop\n      pop\n      jump\t// out\n\n    auxdata: 0xa26469706673582212209a393bc1a6ef854a7784683f86ff863e01c2bbcd1963d4659b4bb9ca50b652b564736f6c634300081a0033\n}\n",
				"bytecode": {
					"linkReferences": {},
					"object": "6080604052348015600e575f80fd5b506103b68061001c5f395ff3fe608060405234801561000f575f80fd5b506004361061007b575f3560e01c80638552dc08116100595780638552dc08146100b35780639ebb8d20146100d3578063a8b63e6f146100dd578063e61e4008146100e75761007b565b80631a8d7dc31461007f5780633dece511146100895780635a4236b1146100a9575b5f80fd5b610087610107565b005b610091610135565b6040516100a09392919061034b565b60405180910390f35b6100b161016b565b005b6100bb61019c565b6040516100ca9392919061034b565b60405180910390f35b6100db6101d2565b005b6100e5610203565b005b6100ef61021c565b6040516100fe9392919061034b565b60405180910390f35b612b675f8001819055506156ce5f600101819055505f61012c815f0181905550610190816001018190555050565b5f8061013f610252565b600292505f91506040518060600160405280600381526020016002815260200160018152509050909192565b604051806040016040528061020881526020016105228152505f80820151815f015560208201518160010155905050565b5f806101a6610252565b600180604051806060016040528060018152602001600281526020016005815250925092509250909192565b604051806040016040528061020881526020016105228152505f80820151815f015560208201518160010155905050565b5f610208815f0181905550610522816001018190555050565b5f80610226610252565b600180604051806060016040528060018152602001600281526020016005815250925092509250909192565b6040518060600160405280600390602082028036833780820191505090505090565b5f819050919050565b61028681610274565b82525050565b5f8115159050919050565b6102a08161028c565b82525050565b5f60039050919050565b5f81905092915050565b5f819050919050565b6102cc81610274565b82525050565b5f6102dd83836102c3565b60208301905092915050565b5f602082019050919050565b6102fe816102a6565b61030881846102b0565b9250610313826102ba565b805f5b8381101561034357815161032a87826102d2565b9650610335836102e9565b925050600181019050610316565b505050505050565b5f60a08201905061035e5f83018661027d565b61036b6020830185610297565b61037860408301846102f5565b94935050505056fea26469706673582212209a393bc1a6ef854a7784683f86ff863e01c2bbcd1963d4659b4bb9ca50b652b564736f6c634300081a0033",
					"opcodes": "PUSH1 0x80 PUSH1 0x40 MSTORE CALLVALUE DUP1 ISZERO PUSH1 0xE JUMPI PUSH0 DUP1 REVERT JUMPDEST POP PUSH2 0x3B6 DUP1 PUSH2 0x1C PUSH0 CODECOPY PUSH0 RETURN INVALID PUSH1 0x80 PUSH1 0x40 MSTORE CALLVALUE DUP1 ISZERO PUSH2 0xF JUMPI PUSH0 DUP1 REVERT JUMPDEST POP PUSH1 0x4 CALLDATASIZE LT PUSH2 0x7B JUMPI PUSH0 CALLDATALOAD PUSH1 0xE0 SHR DUP1 PUSH4 0x8552DC08 GT PUSH2 0x59 JUMPI DUP1 PUSH4 0x8552DC08 EQ PUSH2 0xB3 JUMPI DUP1 PUSH4 0x9EBB8D20 EQ PUSH2 0xD3 JUMPI DUP1 PUSH4 0xA8B63E6F EQ PUSH2 0xDD JUMPI DUP1 PUSH4 0xE61E4008 EQ PUSH2 0xE7 JUMPI PUSH2 0x7B JUMP JUMPDEST DUP1 PUSH4 0x1A8D7DC3 EQ PUSH2 0x7F JUMPI DUP1 PUSH4 0x3DECE511 EQ PUSH2 0x89 JUMPI DUP1 PUSH4 0x5A4236B1 EQ PUSH2 0xA9 JUMPI JUMPDEST PUSH0 DUP1 REVERT JUMPDEST PUSH2 0x87 PUSH2 0x107 JUMP JUMPDEST STOP JUMPDEST PUSH2 0x91 PUSH2 0x135 JUMP JUMPDEST PUSH1 0x40 MLOAD PUSH2 0xA0 SWAP4 SWAP3 SWAP2 SWAP1 PUSH2 0x34B JUMP JUMPDEST PUSH1 0x40 MLOAD DUP1 SWAP2 SUB SWAP1 RETURN JUMPDEST PUSH2 0xB1 PUSH2 0x16B JUMP JUMPDEST STOP JUMPDEST PUSH2 0xBB PUSH2 0x19C JUMP JUMPDEST PUSH1 0x40 MLOAD PUSH2 0xCA SWAP4 SWAP3 SWAP2 SWAP1 PUSH2 0x34B JUMP JUMPDEST PUSH1 0x40 MLOAD DUP1 SWAP2 SUB SWAP1 RETURN JUMPDEST PUSH2 0xDB PUSH2 0x1D2 JUMP JUMPDEST STOP JUMPDEST PUSH2 0xE5 PUSH2 0x203 JUMP JUMPDEST STOP JUMPDEST PUSH2 0xEF PUSH2 0x21C JUMP JUMPDEST PUSH1 0x40 MLOAD PUSH2 0xFE SWAP4 SWAP3 SWAP2 SWAP1 PUSH2 0x34B JUMP JUMPDEST PUSH1 0x40 MLOAD DUP1 SWAP2 SUB SWAP1 RETURN JUMPDEST PUSH2 0x2B67 PUSH0 DUP1 ADD DUP2 SWAP1 SSTORE POP PUSH2 0x56CE PUSH0 PUSH1 0x1 ADD DUP2 SWAP1 SSTORE POP PUSH0 PUSH2 0x12C DUP2 PUSH0 ADD DUP2 SWAP1 SSTORE POP PUSH2 0x190 DUP2 PUSH1 0x1 ADD DUP2 SWAP1 SSTORE POP POP JUMP JUMPDEST PUSH0 DUP1 PUSH2 0x13F PUSH2 0x252 JUMP JUMPDEST PUSH1 0x2 SWAP3 POP PUSH0 SWAP2 POP PUSH1 0x40 MLOAD DUP1 PUSH1 0x60 ADD PUSH1 0x40 MSTORE DUP1 PUSH1 0x3 DUP2 MSTORE PUSH1 0x20 ADD PUSH1 0x2 DUP2 MSTORE PUSH1 0x20 ADD PUSH1 0x1 DUP2 MSTORE POP SWAP1 POP SWAP1 SWAP2 SWAP3 JUMP JUMPDEST PUSH1 0x40 MLOAD DUP1 PUSH1 0x40 ADD PUSH1 0x40 MSTORE DUP1 PUSH2 0x208 DUP2 MSTORE PUSH1 0x20 ADD PUSH2 0x522 DUP2 MSTORE POP PUSH0 DUP1 DUP3 ADD MLOAD DUP2 PUSH0 ADD SSTORE PUSH1 0x20 DUP3 ADD MLOAD DUP2 PUSH1 0x1 ADD SSTORE SWAP1 POP POP JUMP JUMPDEST PUSH0 DUP1 PUSH2 0x1A6 PUSH2 0x252 JUMP JUMPDEST PUSH1 0x1 DUP1 PUSH1 0x40 MLOAD DUP1 PUSH1 0x60 ADD PUSH1 0x40 MSTORE DUP1 PUSH1 0x1 DUP2 MSTORE PUSH1 0x20 ADD PUSH1 0x2 DUP2 MSTORE PUSH1 0x20 ADD PUSH1 0x5 DUP2 MSTORE POP SWAP3 POP SWAP3 POP SWAP3 POP SWAP1 SWAP2 SWAP3 JUMP JUMPDEST PUSH1 0x40 MLOAD DUP1 PUSH1 0x40 ADD PUSH1 0x40 MSTORE DUP1 PUSH2 0x208 DUP2 MSTORE PUSH1 0x20 ADD PUSH2 0x522 DUP2 MSTORE POP PUSH0 DUP1 DUP3 ADD MLOAD DUP2 PUSH0 ADD SSTORE PUSH1 0x20 DUP3 ADD MLOAD DUP2 PUSH1 0x1 ADD SSTORE SWAP1 POP POP JUMP JUMPDEST PUSH0 PUSH2 0x208 DUP2 PUSH0 ADD DUP2 SWAP1 SSTORE POP PUSH2 0x522 DUP2 PUSH1 0x1 ADD DUP2 SWAP1 SSTORE POP POP JUMP JUMPDEST PUSH0 DUP1 PUSH2 0x226 PUSH2 0x252 JUMP JUMPDEST PUSH1 0x1 DUP1 PUSH1 0x40 MLOAD DUP1 PUSH1 0x60 ADD PUSH1 0x40 MSTORE DUP1 PUSH1 0x1 DUP2 MSTORE PUSH1 0x20 ADD PUSH1 0x2 DUP2 MSTORE PUSH1 0x20 ADD PUSH1 0x5 DUP2 MSTORE POP SWAP3 POP SWAP3 POP SWAP3 POP SWAP1 SWAP2 SWAP3 JUMP JUMPDEST PUSH1 0x40 MLOAD DUP1 PUSH1 0x60 ADD PUSH1 0x40 MSTORE DUP1 PUSH1 0x3 SWAP1 PUSH1 0x20 DUP3 MUL DUP1 CALLDATASIZE DUP4 CALLDATACOPY DUP1 DUP3 ADD SWAP2 POP POP SWAP1 POP POP SWAP1 JUMP JUMPDEST PUSH0 DUP2 SWAP1 POP SWAP2 SWAP1 POP JUMP JUMPDEST PUSH2 0x286 DUP2 PUSH2 0x274 JUMP JUMPDEST DUP3 MSTORE POP POP JUMP JUMPDEST PUSH0 DUP2 ISZERO ISZERO SWAP1 POP SWAP2 SWAP1 POP JUMP JUMPDEST PUSH2 0x2A0 DUP2 PUSH2 0x28C JUMP JUMPDEST DUP3 MSTORE POP POP JUMP JUMPDEST PUSH0 PUSH1 0x3 SWAP1 POP SWAP2 SWAP1 POP JUMP JUMPDEST PUSH0 DUP2 SWAP1 POP SWAP3 SWAP2 POP POP JUMP JUMPDEST PUSH0 DUP2 SWAP1 POP SWAP2 SWAP1 POP JUMP JUMPDEST PUSH2 0x2CC DUP2 PUSH2 0x274 JUMP JUMPDEST DUP3 MSTORE POP POP JUMP JUMPDEST PUSH0 PUSH2 0x2DD DUP4 DUP4 PUSH2 0x2C3 JUMP JUMPDEST PUSH1 0x20 DUP4 ADD SWAP1 POP SWAP3 SWAP2 POP POP JUMP JUMPDEST PUSH0 PUSH1 0x20 DUP3 ADD SWAP1 POP SWAP2 SWAP1 POP JUMP JUMPDEST PUSH2 0x2FE DUP2 PUSH2 0x2A6 JUMP JUMPDEST PUSH2 0x308 DUP2 DUP5 PUSH2 0x2B0 JUMP JUMPDEST SWAP3 POP PUSH2 0x313 DUP3 PUSH2 0x2BA JUMP JUMPDEST DUP1 PUSH0 JUMPDEST DUP4 DUP2 LT ISZERO PUSH2 0x343 JUMPI DUP2 MLOAD PUSH2 0x32A DUP8 DUP3 PUSH2 0x2D2 JUMP JUMPDEST SWAP7 POP PUSH2 0x335 DUP4 PUSH2 0x2E9 JUMP JUMPDEST SWAP3 POP POP PUSH1 0x1 DUP2 ADD SWAP1 POP PUSH2 0x316 JUMP JUMPDEST POP POP POP POP POP POP JUMP JUMPDEST PUSH0 PUSH1 0xA0 DUP3 ADD SWAP1 POP PUSH2 0x35E PUSH0 DUP4 ADD DUP7 PUSH2 0x27D JUMP JUMPDEST PUSH2 0x36B PUSH1 0x20 DUP4 ADD DUP6 PUSH2 0x297 JUMP JUMPDEST PUSH2 0x378 PUSH1 0x40 DUP4 ADD DUP5 PUSH2 0x2F5 JUMP JUMPDEST SWAP5 SWAP4 POP POP POP POP JUMP INVALID LOG2 PUSH5 0x6970667358 0x22 SLT KECCAK256 SWAP11 CODECOPY EXTCODESIZE 0xC1 0xA6 0xEF DUP6 BLOBBASEFEE PUSH24 0x84683F86FF863E01C2BBCD1963D4659B4BB9CA50B652B564 PUSH20 0x6F6C634300081A00330000000000000000000000 "
				},
				"gasEstimates": {
					"creation": {
						"codeDepositCost": "190000",
						"executionCost": "230",
						"totalCost": "190230"
					},
					"external": {
						"initStudent1()": "44430",
						"initStudent2()": "54425",
						"initStudent3()": "44497",
						"initStudent4()": "44474",
						"returnMultiple()": "infinite",
						"returnNamed()": "infinite",
						"returnNamed2()": "infinite"
					}
				},
				"methodIdentifiers": {
					"initStudent1()": "a8b63e6f",
					"initStudent2()": "1a8d7dc3",
					"initStudent3()": "5a4236b1",
					"initStudent4()": "9ebb8d20",
					"returnMultiple()": "e61e4008",
					"returnNamed()": "3dece511",
					"returnNamed2()": "8552dc08"
				}
			},
			"storageLayout": {
				"storage": [
					{
						"astId": 85,
						"contract": "return.sol:Returns",
						"label": "student",
						"offset": 0,
						"slot": "0",
						"type": "t_struct(Student)82_storage"
					}
				],
				"types": {
					"t_struct(Student)82_storage": {
						"encoding": "inplace",
						"label": "struct Returns.Student",
						"members": [
							{
								"astId": 79,
								"contract": "return.sol:Returns",
								"label": "id",
								"offset": 0,
								"slot": "0",
								"type": "t_uint256"
							},
							{
								"astId": 81,
								"contract": "return.sol:Returns",
								"label": "score",
								"offset": 0,
								"slot": "1",
								"type": "t_uint256"
							}
						],
						"numberOfBytes": "64"
					},
					"t_uint256": {
						"encoding": "inplace",
						"label": "uint256",
						"numberOfBytes": "32"
					}
				}
			},
			"userdoc": {
				"kind": "user",
				"methods": {},
				"version": 1
			}
		}
	}
}