{
	"data": {
		"bytecode": {
			"linkReferences": {},
			"object": "6080604052348015600e575f80fd5b506103b68061001c5f395ff3fe608060405234801561000f575f80fd5b506004361061007b575f3560e01c80638552dc08116100595780638552dc08146100b35780639ebb8d20146100d3578063a8b63e6f146100dd578063e61e4008146100e75761007b565b80631a8d7dc31461007f5780633dece511146100895780635a4236b1146100a9575b5f80fd5b610087610107565b005b610091610135565b6040516100a09392919061034b565b60405180910390f35b6100b161016b565b005b6100bb61019c565b6040516100ca9392919061034b565b60405180910390f35b6100db6101d2565b005b6100e5610203565b005b6100ef61021c565b6040516100fe9392919061034b565b60405180910390f35b612b675f8001819055506156ce5f600101819055505f61012c815f0181905550610190816001018190555050565b5f8061013f610252565b600292505f91506040518060600160405280600381526020016002815260200160018152509050909192565b604051806040016040528061020881526020016105228152505f80820151815f015560208201518160010155905050565b5f806101a6610252565b600180604051806060016040528060018152602001600281526020016005815250925092509250909192565b604051806040016040528061020881526020016105228152505f80820151815f015560208201518160010155905050565b5f610208815f0181905550610522816001018190555050565b5f80610226610252565b600180604051806060016040528060018152602001600281526020016005815250925092509250909192565b6040518060600160405280600390602082028036833780820191505090505090565b5f819050919050565b61028681610274565b82525050565b5f8115159050919050565b6102a08161028c565b82525050565b5f60039050919050565b5f81905092915050565b5f819050919050565b6102cc81610274565b82525050565b5f6102dd83836102c3565b60208301905092915050565b5f602082019050919050565b6102fe816102a6565b61030881846102b0565b9250610313826102ba565b805f5b8381101561034357815161032a87826102d2565b9650610335836102e9565b925050600181019050610316565b505050505050565b5f60a08201905061035e5f83018661027d565b61036b6020830185610297565b61037860408301846102f5565b94935050505056fea2646970667358221220acbc1ebe7aa43720bd4a2351ca23c70028c6d03f4bd27396150943032d42b3b164736f6c634300081a0033",
			"opcodes": "PUSH1 0x80 PUSH1 0x40 MSTORE CALLVALUE DUP1 ISZERO PUSH1 0xE JUMPI PUSH0 DUP1 REVERT JUMPDEST POP PUSH2 0x3B6 DUP1 PUSH2 0x1C PUSH0 CODECOPY PUSH0 RETURN INVALID PUSH1 0x80 PUSH1 0x40 MSTORE CALLVALUE DUP1 ISZERO PUSH2 0xF JUMPI PUSH0 DUP1 REVERT JUMPDEST POP PUSH1 0x4 CALLDATASIZE LT PUSH2 0x7B JUMPI PUSH0 CALLDATALOAD PUSH1 0xE0 SHR DUP1 PUSH4 0x8552DC08 GT PUSH2 0x59 JUMPI DUP1 PUSH4 0x8552DC08 EQ PUSH2 0xB3 JUMPI DUP1 PUSH4 0x9EBB8D20 EQ PUSH2 0xD3 JUMPI DUP1 PUSH4 0xA8B63E6F EQ PUSH2 0xDD JUMPI DUP1 PUSH4 0xE61E4008 EQ PUSH2 0xE7 JUMPI PUSH2 0x7B JUMP JUMPDEST DUP1 PUSH4 0x1A8D7DC3 EQ PUSH2 0x7F JUMPI DUP1 PUSH4 0x3DECE511 EQ PUSH2 0x89 JUMPI DUP1 PUSH4 0x5A4236B1 EQ PUSH2 0xA9 JUMPI JUMPDEST PUSH0 DUP1 REVERT JUMPDEST PUSH2 0x87 PUSH2 0x107 JUMP JUMPDEST STOP JUMPDEST PUSH2 0x91 PUSH2 0x135 JUMP JUMPDEST PUSH1 0x40 MLOAD PUSH2 0xA0 SWAP4 SWAP3 SWAP2 SWAP1 PUSH2 0x34B JUMP JUMPDEST PUSH1 0x40 MLOAD DUP1 SWAP2 SUB SWAP1 RETURN JUMPDEST PUSH2 0xB1 PUSH2 0x16B JUMP JUMPDEST STOP JUMPDEST PUSH2 0xBB PUSH2 0x19C JUMP JUMPDEST PUSH1 0x40 MLOAD PUSH2 0xCA SWAP4 SWAP3 SWAP2 SWAP1 PUSH2 0x34B JUMP JUMPDEST PUSH1 0x40 MLOAD DUP1 SWAP2 SUB SWAP1 RETURN JUMPDEST PUSH2 0xDB PUSH2 0x1D2 JUMP JUMPDEST STOP JUMPDEST PUSH2 0xE5 PUSH2 0x203 JUMP JUMPDEST STOP JUMPDEST PUSH2 0xEF PUSH2 0x21C JUMP JUMPDEST PUSH1 0x40 MLOAD PUSH2 0xFE SWAP4 SWAP3 SWAP2 SWAP1 PUSH2 0x34B JUMP JUMPDEST PUSH1 0x40 MLOAD DUP1 SWAP2 SUB SWAP1 RETURN JUMPDEST PUSH2 0x2B67 PUSH0 DUP1 ADD DUP2 SWAP1 SSTORE POP PUSH2 0x56CE PUSH0 PUSH1 0x1 ADD DUP2 SWAP1 SSTORE POP PUSH0 PUSH2 0x12C DUP2 PUSH0 ADD DUP2 SWAP1 SSTORE POP PUSH2 0x190 DUP2 PUSH1 0x1 ADD DUP2 SWAP1 SSTORE POP POP JUMP JUMPDEST PUSH0 DUP1 PUSH2 0x13F PUSH2 0x252 JUMP JUMPDEST PUSH1 0x2 SWAP3 POP PUSH0 SWAP2 POP PUSH1 0x40 MLOAD DUP1 PUSH1 0x60 ADD PUSH1 0x40 MSTORE DUP1 PUSH1 0x3 DUP2 MSTORE PUSH1 0x20 ADD PUSH1 0x2 DUP2 MSTORE PUSH1 0x20 ADD PUSH1 0x1 DUP2 MSTORE POP SWAP1 POP SWAP1 SWAP2 SWAP3 JUMP JUMPDEST PUSH1 0x40 MLOAD DUP1 PUSH1 0x40 ADD PUSH1 0x40 MSTORE DUP1 PUSH2 0x208 DUP2 MSTORE PUSH1 0x20 ADD PUSH2 0x522 DUP2 MSTORE POP PUSH0 DUP1 DUP3 ADD MLOAD DUP2 PUSH0 ADD SSTORE PUSH1 0x20 DUP3 ADD MLOAD DUP2 PUSH1 0x1 ADD SSTORE SWAP1 POP POP JUMP JUMPDEST PUSH0 DUP1 PUSH2 0x1A6 PUSH2 0x252 JUMP JUMPDEST PUSH1 0x1 DUP1 PUSH1 0x40 MLOAD DUP1 PUSH1 0x60 ADD PUSH1 0x40 MSTORE DUP1 PUSH1 0x1 DUP2 MSTORE PUSH1 0x20 ADD PUSH1 0x2 DUP2 MSTORE PUSH1 0x20 ADD PUSH1 0x5 DUP2 MSTORE POP SWAP3 POP SWAP3 POP SWAP3 POP SWAP1 SWAP2 SWAP3 JUMP JUMPDEST PUSH1 0x40 MLOAD DUP1 PUSH1 0x40 ADD PUSH1 0x40 MSTORE DUP1 PUSH2 0x208 DUP2 MSTORE PUSH1 0x20 ADD PUSH2 0x522 DUP2 MSTORE POP PUSH0 DUP1 DUP3 ADD MLOAD DUP2 PUSH0 ADD SSTORE PUSH1 0x20 DUP3 ADD MLOAD DUP2 PUSH1 0x1 ADD SSTORE SWAP1 POP POP JUMP JUMPDEST PUSH0 PUSH2 0x208 DUP2 PUSH0 ADD DUP2 SWAP1 SSTORE POP PUSH2 0x522 DUP2 PUSH1 0x1 ADD DUP2 SWAP1 SSTORE POP POP JUMP JUMPDEST PUSH0 DUP1 PUSH2 0x226 PUSH2 0x252 JUMP JUMPDEST PUSH1 0x1 DUP1 PUSH1 0x40 MLOAD DUP1 PUSH1 0x60 ADD PUSH1 0x40 MSTORE DUP1 PUSH1 0x1 DUP2 MSTORE PUSH1 0x20 ADD PUSH1 0x2 DUP2 MSTORE PUSH1 0x20 ADD PUSH1 0x5 DUP2 MSTORE POP SWAP3 POP SWAP3 POP SWAP3 POP SWAP1 SWAP2 SWAP3 JUMP JUMPDEST PUSH1 0x40 MLOAD DUP1 PUSH1 0x60 ADD PUSH1 0x40 MSTORE DUP1 PUSH1 0x3 SWAP1 PUSH1 0x20 DUP3 MUL DUP1 CALLDATASIZE DUP4 CALLDATACOPY DUP1 DUP3 ADD SWAP2 POP POP SWAP1 POP POP SWAP1 JUMP JUMPDEST PUSH0 DUP2 SWAP1 POP SWAP2 SWAP1 POP JUMP JUMPDEST PUSH2 0x286 DUP2 PUSH2 0x274 JUMP JUMPDEST DUP3 MSTORE POP POP JUMP JUMPDEST PUSH0 DUP2 ISZERO ISZERO SWAP1 POP SWAP2 SWAP1 POP JUMP JUMPDEST PUSH2 0x2A0 DUP2 PUSH2 0x28C JUMP JUMPDEST DUP3 MSTORE POP POP JUMP JUMPDEST PUSH0 PUSH1 0x3 SWAP1 POP SWAP2 SWAP1 POP JUMP JUMPDEST PUSH0 DUP2 SWAP1 POP SWAP3 SWAP2 POP POP JUMP JUMPDEST PUSH0 DUP2 SWAP1 POP SWAP2 SWAP1 POP JUMP JUMPDEST PUSH2 0x2CC DUP2 PUSH2 0x274 JUMP JUMPDEST DUP3 MSTORE POP POP JUMP JUMPDEST PUSH0 PUSH2 0x2DD DUP4 DUP4 PUSH2 0x2C3 JUMP JUMPDEST PUSH1 0x20 DUP4 ADD SWAP1 POP SWAP3 SWAP2 POP POP JUMP JUMPDEST PUSH0 PUSH1 0x20 DUP3 ADD SWAP1 POP SWAP2 SWAP1 POP JUMP JUMPDEST PUSH2 0x2FE DUP2 PUSH2 0x2A6 JUMP JUMPDEST PUSH2 0x308 DUP2 DUP5 PUSH2 0x2B0 JUMP JUMPDEST SWAP3 POP PUSH2 0x313 DUP3 PUSH2 0x2BA JUMP JUMPDEST DUP1 PUSH0 JUMPDEST DUP4 DUP2 LT ISZERO PUSH2 0x343 JUMPI DUP2 MLOAD PUSH2 0x32A DUP8 DUP3 PUSH2 0x2D2 JUMP JUMPDEST SWAP7 POP PUSH2 0x335 DUP4 PUSH2 0x2E9 JUMP JUMPDEST SWAP3 POP POP PUSH1 0x1 DUP2 ADD SWAP1 POP PUSH2 0x316 JUMP JUMPDEST POP POP POP POP POP POP JUMP JUMPDEST PUSH0 PUSH1 0xA0 DUP3 ADD SWAP1 POP PUSH2 0x35E PUSH0 DUP4 ADD DUP7 PUSH2 0x27D JUMP JUMPDEST PUSH2 0x36B PUSH1 0x20 DUP4 ADD DUP6 PUSH2 0x297 JUMP JUMPDEST PUSH2 0x378 PUSH1 0x40 DUP4 ADD DUP5 PUSH2 0x2F5 JUMP JUMPDEST SWAP5 SWAP4 POP POP POP POP JUMP INVALID LOG2 PUSH5 0x6970667358 0x22 SLT KECCAK256 0xAC 0xBC 0x1E 0xBE PUSH27 0xA43720BD4A2351CA23C70028C6D03F4BD27396150943032D42B3B1 PUSH5 0x736F6C6343 STOP ADDMOD BYTE STOP CALLER "
		},
		"gasEstimates": {
			"creation": {
				"codeDepositCost": "190000",
				"executionCost": "230",
				"totalCost": "190230"
			},
			"external": {
				"initStudent1()": "44430",
				"initStudent2()": "54425",
				"initStudent3()": "44497",
				"initStudent4()": "44474",
				"returnMultiple()": "infinite",
				"returnNamed()": "infinite",
				"returnNamed2()": "infinite"
			}
		},
		"methodIdentifiers": {
			"initStudent1()": "a8b63e6f",
			"initStudent2()": "1a8d7dc3",
			"initStudent3()": "5a4236b1",
			"initStudent4()": "9ebb8d20",
			"returnMultiple()": "e61e4008",
			"returnNamed()": "3dece511",
			"returnNamed2()": "8552dc08"
		}
	},
	"abi": [
		{
			"inputs": [],
			"name": "initStudent1",
			"outputs": [],
			"stateMutability": "nonpayable",
			"type": "function"
		},
		{
			"inputs": [],
			"name": "initStudent2",
			"outputs": [],
			"stateMutability": "nonpayable",
			"type": "function"
		},
		{
			"inputs": [],
			"name": "initStudent3",
			"outputs": [],
			"stateMutability": "nonpayable",
			"type": "function"
		},
		{
			"inputs": [],
			"name": "initStudent4",
			"outputs": [],
			"stateMutability": "nonpayable",
			"type": "function"
		},
		{
			"inputs": [],
			"name": "returnMultiple",
			"outputs": [
				{
					"internalType": "uint256",
					"name": "",
					"type": "uint256"
				},
				{
					"internalType": "bool",
					"name": "",
					"type": "bool"
				},
				{
					"internalType": "uint256[3]",
					"name": "",
					"type": "uint256[3]"
				}
			],
			"stateMutability": "pure",
			"type": "function"
		},
		{
			"inputs": [],
			"name": "returnNamed",
			"outputs": [
				{
					"internalType": "uint256",
					"name": "_number",
					"type": "uint256"
				},
				{
					"internalType": "bool",
					"name": "_bool",
					"type": "bool"
				},
				{
					"internalType": "uint256[3]",
					"name": "_array",
					"type": "uint256[3]"
				}
			],
			"stateMutability": "pure",
			"type": "function"
		},
		{
			"inputs": [],
			"name": "returnNamed2",
			"outputs": [
				{
					"internalType": "uint256",
					"name": "_number",
					"type": "uint256"
				},
				{
					"internalType": "bool",
					"name": "_bool",
					"type": "bool"
				},
				{
					"internalType": "uint256[3]",
					"name": "_array",
					"type": "uint256[3]"
				}
			],
			"stateMutability": "pure",
			"type": "function"
		}
	]
}