{
	"solidy101/initial.sol": {
		"Initial": {
			"abi": [
				{
					"inputs": [],
					"name": "_address",
					"outputs": [
						{
							"internalType": "address",
							"name": "",
							"type": "address"
						}
					],
					"stateMutability": "view",
					"type": "function"
				},
				{
					"inputs": [],
					"name": "_bool",
					"outputs": [
						{
							"internalType": "bool",
							"name": "",
							"type": "bool"
						}
					],
					"stateMutability": "view",
					"type": "function"
				},
				{
					"inputs": [],
					"name": "_bytes",
					"outputs": [
						{
							"internalType": "bytes",
							"name": "",
							"type": "bytes"
						}
					],
					"stateMutability": "view",
					"type": "function"
				},
				{
					"inputs": [],
					"name": "_bytes1",
					"outputs": [
						{
							"internalType": "bytes1",
							"name": "",
							"type": "bytes1"
						}
					],
					"stateMutability": "view",
					"type": "function"
				},
				{
					"inputs": [
						{
							"internalType": "uint256",
							"name": "",
							"type": "uint256"
						}
					],
					"name": "_bytes1Array",
					"outputs": [
						{
							"internalType": "bytes1",
							"name": "",
							"type": "bytes1"
						}
					],
					"stateMutability": "view",
					"type": "function"
				},
				{
					"inputs": [],
					"name": "_enum",
					"outputs": [
						{
							"internalType": "enum Initial.ActionSet",
							"name": "",
							"type": "uint8"
						}
					],
					"stateMutability": "view",
					"type": "function"
				},
				{
					"inputs": [],
					"name": "_int",
					"outputs": [
						{
							"internalType": "int256",
							"name": "",
							"type": "int256"
						}
					],
					"stateMutability": "view",
					"type": "function"
				},
				{
					"inputs": [
						{
							"internalType": "uint256",
							"name": "",
							"type": "uint256"
						}
					],
					"name": "_mapping",
					"outputs": [
						{
							"internalType": "address",
							"name": "",
							"type": "address"
						}
					],
					"stateMutability": "view",
					"type": "function"
				},
				{
					"inputs": [
						{
							"internalType": "uint256",
							"name": "",
							"type": "uint256"
						}
					],
					"name": "_staticArray",
					"outputs": [
						{
							"internalType": "uint256",
							"name": "",
							"type": "uint256"
						}
					],
					"stateMutability": "view",
					"type": "function"
				},
				{
					"inputs": [],
					"name": "_string",
					"outputs": [
						{
							"internalType": "string",
							"name": "",
							"type": "string"
						}
					],
					"stateMutability": "view",
					"type": "function"
				},
				{
					"inputs": [],
					"name": "_uint",
					"outputs": [
						{
							"internalType": "uint256",
							"name": "",
							"type": "uint256"
						}
					],
					"stateMutability": "view",
					"type": "function"
				},
				{
					"inputs": [
						{
							"internalType": "uint256",
							"name": "key",
							"type": "uint256"
						},
						{
							"internalType": "uint256",
							"name": "number",
							"type": "uint256"
						}
					],
					"name": "addArrayValue",
					"outputs": [],
					"stateMutability": "nonpayable",
					"type": "function"
				},
				{
					"inputs": [
						{
							"internalType": "uint256",
							"name": "key",
							"type": "uint256"
						}
					],
					"name": "deleteArrayValue",
					"outputs": [],
					"stateMutability": "nonpayable",
					"type": "function"
				},
				{
					"inputs": [],
					"name": "fe",
					"outputs": [],
					"stateMutability": "nonpayable",
					"type": "function"
				}
			],
			"devdoc": {
				"kind": "dev",
				"methods": {},
				"version": 1
			},
			"evm": {
				"assembly": "    /* \"solidy101/initial.sol\":61:936  contract Initial {... */\n  mstore(0x40, 0x80)\n  callvalue\n  dup1\n  iszero\n  tag_1\n  jumpi\n  0x00\n  dup1\n  revert\ntag_1:\n  pop\n  dataSize(sub_0)\n  dup1\n  dataOffset(sub_0)\n  0x00\n  codecopy\n  0x00\n  return\nstop\n\nsub_0: assembly {\n        /* \"solidy101/initial.sol\":61:936  contract Initial {... */\n      mstore(0x40, 0x80)\n      callvalue\n      dup1\n      iszero\n      tag_1\n      jumpi\n      0x00\n      dup1\n      revert\n    tag_1:\n      pop\n      jumpi(tag_2, lt(calldatasize, 0x04))\n      shr(0xe0, calldataload(0x00))\n      dup1\n      0x4f50ea8d\n      gt\n      tag_17\n      jumpi\n      dup1\n      0x9b267f09\n      gt\n      tag_18\n      jumpi\n      dup1\n      0x9b267f09\n      eq\n      tag_13\n      jumpi\n      dup1\n      0x9e6ba9c2\n      eq\n      tag_14\n      jumpi\n      dup1\n      0xa2ba3ee4\n      eq\n      tag_15\n      jumpi\n      dup1\n      0xaf45869e\n      eq\n      tag_16\n      jumpi\n      jump(tag_2)\n    tag_18:\n      dup1\n      0x4f50ea8d\n      eq\n      tag_10\n      jumpi\n      dup1\n      0x86ed6eac\n      eq\n      tag_11\n      jumpi\n      dup1\n      0x906afbba\n      eq\n      tag_12\n      jumpi\n      jump(tag_2)\n    tag_17:\n      dup1\n      0x1e117e22\n      gt\n      tag_19\n      jumpi\n      dup1\n      0x1e117e22\n      eq\n      tag_6\n      jumpi\n      dup1\n      0x2543135b\n      eq\n      tag_7\n      jumpi\n      dup1\n      0x29f789e9\n      eq\n      tag_8\n      jumpi\n      dup1\n      0x30c0826f\n      eq\n      tag_9\n      jumpi\n      jump(tag_2)\n    tag_19:\n      dup1\n      0x12b7b142\n      eq\n      tag_3\n      jumpi\n      dup1\n      0x143236a5\n      eq\n      tag_4\n      jumpi\n      dup1\n      0x18bad217\n      eq\n      tag_5\n      jumpi\n    tag_2:\n      0x00\n      dup1\n      revert\n        /* \"solidy101/initial.sol\":527:554  uint[8] public _staticArray */\n    tag_3:\n      tag_20\n      0x04\n      dup1\n      calldatasize\n      sub\n      dup2\n      add\n      swap1\n      tag_21\n      swap2\n      swap1\n      tag_22\n      jump\t// in\n    tag_21:\n      tag_23\n      jump\t// in\n    tag_20:\n      mload(0x40)\n      tag_24\n      swap2\n      swap1\n      tag_25\n      jump\t// in\n    tag_24:\n      mload(0x40)\n      dup1\n      swap2\n      sub\n      swap1\n      return\n        /* \"solidy101/initial.sol\":844:933  function deleteArrayValue (uint key) external {... */\n    tag_4:\n      tag_26\n      0x04\n      dup1\n      calldatasize\n      sub\n      dup2\n      add\n      swap1\n      tag_27\n      swap2\n      swap1\n      tag_22\n      jump\t// in\n    tag_27:\n      tag_28\n      jump\t// in\n    tag_26:\n      stop\n        /* \"solidy101/initial.sol\":208:231  address public _address */\n    tag_5:\n      tag_29\n      tag_30\n      jump\t// in\n    tag_29:\n      mload(0x40)\n      tag_31\n      swap2\n      swap1\n      tag_32\n      jump\t// in\n    tag_31:\n      mload(0x40)\n      dup1\n      swap2\n      sub\n      swap1\n      return\n        /* \"solidy101/initial.sol\":699:800  function addArrayValue (uint key, uint number) external {... */\n    tag_6:\n      tag_33\n      0x04\n      dup1\n      calldatasize\n      sub\n      dup2\n      add\n      swap1\n      tag_34\n      swap2\n      swap1\n      tag_35\n      jump\t// in\n    tag_34:\n      tag_36\n      jump\t// in\n    tag_33:\n      stop\n        /* \"solidy101/initial.sol\":179:196  uint public _uint */\n    tag_7:\n      tag_37\n      tag_38\n      jump\t// in\n    tag_37:\n      mload(0x40)\n      tag_39\n      swap2\n      swap1\n      tag_25\n      jump\t// in\n    tag_39:\n      mload(0x40)\n      dup1\n      swap2\n      sub\n      swap1\n      return\n        /* \"solidy101/initial.sol\":643:664  bytes1 public _bytes1 */\n    tag_8:\n      tag_40\n      tag_41\n      jump\t// in\n    tag_40:\n      mload(0x40)\n      tag_42\n      swap2\n      swap1\n      tag_43\n      jump\t// in\n    tag_42:\n      mload(0x40)\n      dup1\n      swap2\n      sub\n      swap1\n      return\n        /* \"solidy101/initial.sol\":325:347  ActionSet public _enum */\n    tag_9:\n      tag_44\n      tag_45\n      jump\t// in\n    tag_44:\n      mload(0x40)\n      tag_46\n      swap2\n      swap1\n      tag_47\n      jump\t// in\n    tag_46:\n      mload(0x40)\n      dup1\n      swap2\n      sub\n      swap1\n      return\n        /* \"solidy101/initial.sol\":671:690  bytes public _bytes */\n    tag_10:\n      tag_48\n      tag_49\n      jump\t// in\n    tag_48:\n      mload(0x40)\n      tag_50\n      swap2\n      swap1\n      tag_51\n      jump\t// in\n    tag_50:\n      mload(0x40)\n      dup1\n      swap2\n      sub\n      swap1\n      return\n        /* \"solidy101/initial.sol\":440:464  function fe() external{} */\n    tag_11:\n      tag_52\n      tag_53\n      jump\t// in\n    tag_52:\n      stop\n        /* \"solidy101/initial.sol\":608:636  bytes1[] public _bytes1Array */\n    tag_12:\n      tag_54\n      0x04\n      dup1\n      calldatasize\n      sub\n      dup2\n      add\n      swap1\n      tag_55\n      swap2\n      swap1\n      tag_22\n      jump\t// in\n    tag_55:\n      tag_56\n      jump\t// in\n    tag_54:\n      mload(0x40)\n      tag_57\n      swap2\n      swap1\n      tag_43\n      jump\t// in\n    tag_57:\n      mload(0x40)\n      dup1\n      swap2\n      sub\n      swap1\n      return\n        /* \"solidy101/initial.sol\":118:139  string public _string */\n    tag_13:\n      tag_58\n      tag_59\n      jump\t// in\n    tag_58:\n      mload(0x40)\n      tag_60\n      swap2\n      swap1\n      tag_61\n      jump\t// in\n    tag_60:\n      mload(0x40)\n      dup1\n      swap2\n      sub\n      swap1\n      return\n        /* \"solidy101/initial.sol\":85:102  bool public _bool */\n    tag_14:\n      tag_62\n      tag_63\n      jump\t// in\n    tag_62:\n      mload(0x40)\n      tag_64\n      swap2\n      swap1\n      tag_65\n      jump\t// in\n    tag_64:\n      mload(0x40)\n      dup1\n      swap2\n      sub\n      swap1\n      return\n        /* \"solidy101/initial.sol\":561:601  mapping(uint => address) public _mapping */\n    tag_15:\n      tag_66\n      0x04\n      dup1\n      calldatasize\n      sub\n      dup2\n      add\n      swap1\n      tag_67\n      swap2\n      swap1\n      tag_22\n      jump\t// in\n    tag_67:\n      tag_68\n      jump\t// in\n    tag_66:\n      mload(0x40)\n      tag_69\n      swap2\n      swap1\n      tag_32\n      jump\t// in\n    tag_69:\n      mload(0x40)\n      dup1\n      swap2\n      sub\n      swap1\n      return\n        /* \"solidy101/initial.sol\":152:167  int public _int */\n    tag_16:\n      tag_70\n      tag_71\n      jump\t// in\n    tag_70:\n      mload(0x40)\n      tag_72\n      swap2\n      swap1\n      tag_73\n      jump\t// in\n    tag_72:\n      mload(0x40)\n      dup1\n      swap2\n      sub\n      swap1\n      return\n        /* \"solidy101/initial.sol\":527:554  uint[8] public _staticArray */\n    tag_23:\n      0x05\n      dup2\n      0x08\n      dup2\n      lt\n      tag_74\n      jumpi\n      0x00\n      dup1\n      revert\n    tag_74:\n      add\n      0x00\n      swap2\n      pop\n      swap1\n      pop\n      sload\n      dup2\n      jump\t// out\n        /* \"solidy101/initial.sol\":844:933  function deleteArrayValue (uint key) external {... */\n    tag_28:\n        /* \"solidy101/initial.sol\":908:920  _staticArray */\n      0x05\n        /* \"solidy101/initial.sol\":921:924  key */\n      dup2\n        /* \"solidy101/initial.sol\":908:925  _staticArray[key] */\n      0x08\n      dup2\n      lt\n      tag_77\n      jumpi\n      tag_78\n      tag_79\n      jump\t// in\n    tag_78:\n    tag_77:\n      add\n        /* \"solidy101/initial.sol\":901:925  delete _staticArray[key] */\n      0x00\n      swap1\n      sstore\n        /* \"solidy101/initial.sol\":844:933  function deleteArrayValue (uint key) external {... */\n      pop\n      jump\t// out\n        /* \"solidy101/initial.sol\":208:231  address public _address */\n    tag_30:\n      0x04\n      0x00\n      swap1\n      sload\n      swap1\n      0x0100\n      exp\n      swap1\n      div\n      0xffffffffffffffffffffffffffffffffffffffff\n      and\n      dup2\n      jump\t// out\n        /* \"solidy101/initial.sol\":699:800  function addArrayValue (uint key, uint number) external {... */\n    tag_36:\n        /* \"solidy101/initial.sol\":786:792  number */\n      dup1\n        /* \"solidy101/initial.sol\":766:778  _staticArray */\n      0x05\n        /* \"solidy101/initial.sol\":779:782  key */\n      dup4\n        /* \"solidy101/initial.sol\":766:783  _staticArray[key] */\n      0x08\n      dup2\n      lt\n      tag_82\n      jumpi\n      tag_83\n      tag_79\n      jump\t// in\n    tag_83:\n    tag_82:\n      add\n        /* \"solidy101/initial.sol\":766:792  _staticArray[key] = number */\n      dup2\n      swap1\n      sstore\n      pop\n        /* \"solidy101/initial.sol\":699:800  function addArrayValue (uint key, uint number) external {... */\n      pop\n      pop\n      jump\t// out\n        /* \"solidy101/initial.sol\":179:196  uint public _uint */\n    tag_38:\n      sload(0x03)\n      dup2\n      jump\t// out\n        /* \"solidy101/initial.sol\":643:664  bytes1 public _bytes1 */\n    tag_41:\n      0x0f\n      0x00\n      swap1\n      sload\n      swap1\n      0x0100\n      exp\n      swap1\n      div\n      0xf8\n      shl\n      dup2\n      jump\t// out\n        /* \"solidy101/initial.sol\":325:347  ActionSet public _enum */\n    tag_45:\n      0x04\n      0x14\n      swap1\n      sload\n      swap1\n      0x0100\n      exp\n      swap1\n      div\n      0xff\n      and\n      dup2\n      jump\t// out\n        /* \"solidy101/initial.sol\":671:690  bytes public _bytes */\n    tag_49:\n      0x10\n      dup1\n      sload\n      tag_85\n      swap1\n      tag_86\n      jump\t// in\n    tag_85:\n      dup1\n      0x1f\n      add\n      0x20\n      dup1\n      swap2\n      div\n      mul\n      0x20\n      add\n      mload(0x40)\n      swap1\n      dup2\n      add\n      0x40\n      mstore\n      dup1\n      swap3\n      swap2\n      swap1\n      dup2\n      dup2\n      mstore\n      0x20\n      add\n      dup3\n      dup1\n      sload\n      tag_87\n      swap1\n      tag_86\n      jump\t// in\n    tag_87:\n      dup1\n      iszero\n      tag_88\n      jumpi\n      dup1\n      0x1f\n      lt\n      tag_89\n      jumpi\n      0x0100\n      dup1\n      dup4\n      sload\n      div\n      mul\n      dup4\n      mstore\n      swap2\n      0x20\n      add\n      swap2\n      jump(tag_88)\n    tag_89:\n      dup3\n      add\n      swap2\n      swap1\n      0x00\n      mstore\n      keccak256(0x00, 0x20)\n      swap1\n    tag_90:\n      dup2\n      sload\n      dup2\n      mstore\n      swap1\n      0x01\n      add\n      swap1\n      0x20\n      add\n      dup1\n      dup4\n      gt\n      tag_90\n      jumpi\n      dup3\n      swap1\n      sub\n      0x1f\n      and\n      dup3\n      add\n      swap2\n    tag_88:\n      pop\n      pop\n      pop\n      pop\n      pop\n      dup2\n      jump\t// out\n        /* \"solidy101/initial.sol\":440:464  function fe() external{} */\n    tag_53:\n      jump\t// out\n        /* \"solidy101/initial.sol\":608:636  bytes1[] public _bytes1Array */\n    tag_56:\n      0x0e\n      dup2\n      dup2\n      sload\n      dup2\n      lt\n      tag_92\n      jumpi\n      0x00\n      dup1\n      revert\n    tag_92:\n      swap1\n      0x00\n      mstore\n      keccak256(0x00, 0x20)\n      swap1\n      0x20\n      swap2\n      dup3\n      dup3\n      div\n      add\n      swap2\n      swap1\n      mod\n      swap2\n      pop\n      sload\n      swap1\n      0x0100\n      exp\n      swap1\n      div\n      0xf8\n      shl\n      dup2\n      jump\t// out\n        /* \"solidy101/initial.sol\":118:139  string public _string */\n    tag_59:\n      0x01\n      dup1\n      sload\n      tag_94\n      swap1\n      tag_86\n      jump\t// in\n    tag_94:\n      dup1\n      0x1f\n      add\n      0x20\n      dup1\n      swap2\n      div\n      mul\n      0x20\n      add\n      mload(0x40)\n      swap1\n      dup2\n      add\n      0x40\n      mstore\n      dup1\n      swap3\n      swap2\n      swap1\n      dup2\n      dup2\n      mstore\n      0x20\n      add\n      dup3\n      dup1\n      sload\n      tag_95\n      swap1\n      tag_86\n      jump\t// in\n    tag_95:\n      dup1\n      iszero\n      tag_96\n      jumpi\n      dup1\n      0x1f\n      lt\n      tag_97\n      jumpi\n      0x0100\n      dup1\n      dup4\n      sload\n      div\n      mul\n      dup4\n      mstore\n      swap2\n      0x20\n      add\n      swap2\n      jump(tag_96)\n    tag_97:\n      dup3\n      add\n      swap2\n      swap1\n      0x00\n      mstore\n      keccak256(0x00, 0x20)\n      swap1\n    tag_98:\n      dup2\n      sload\n      dup2\n      mstore\n      swap1\n      0x01\n      add\n      swap1\n      0x20\n      add\n      dup1\n      dup4\n      gt\n      tag_98\n      jumpi\n      dup3\n      swap1\n      sub\n      0x1f\n      and\n      dup3\n      add\n      swap2\n    tag_96:\n      pop\n      pop\n      pop\n      pop\n      pop\n      dup2\n      jump\t// out\n        /* \"solidy101/initial.sol\":85:102  bool public _bool */\n    tag_63:\n      0x00\n      dup1\n      sload\n      swap1\n      0x0100\n      exp\n      swap1\n      div\n      0xff\n      and\n      dup2\n      jump\t// out\n        /* \"solidy101/initial.sol\":561:601  mapping(uint => address) public _mapping */\n    tag_68:\n      mstore(0x20, 0x0d)\n      dup1\n      0x00\n      mstore\n      keccak256(0x00, 0x40)\n      0x00\n      swap2\n      pop\n      sload\n      swap1\n      0x0100\n      exp\n      swap1\n      div\n      0xffffffffffffffffffffffffffffffffffffffff\n      and\n      dup2\n      jump\t// out\n        /* \"solidy101/initial.sol\":152:167  int public _int */\n    tag_71:\n      sload(0x02)\n      dup2\n      jump\t// out\n        /* \"#utility.yul\":88:205   */\n    tag_100:\n        /* \"#utility.yul\":197:198   */\n      0x00\n        /* \"#utility.yul\":194:195   */\n      dup1\n        /* \"#utility.yul\":187:199   */\n      revert\n        /* \"#utility.yul\":334:411   */\n    tag_102:\n        /* \"#utility.yul\":371:378   */\n      0x00\n        /* \"#utility.yul\":400:405   */\n      dup2\n        /* \"#utility.yul\":389:405   */\n      swap1\n      pop\n        /* \"#utility.yul\":334:411   */\n      swap2\n      swap1\n      pop\n      jump\t// out\n        /* \"#utility.yul\":417:539   */\n    tag_103:\n        /* \"#utility.yul\":490:514   */\n      tag_135\n        /* \"#utility.yul\":508:513   */\n      dup2\n        /* \"#utility.yul\":490:514   */\n      tag_102\n      jump\t// in\n    tag_135:\n        /* \"#utility.yul\":483:488   */\n      dup2\n        /* \"#utility.yul\":480:515   */\n      eq\n        /* \"#utility.yul\":470:533   */\n      tag_136\n      jumpi\n        /* \"#utility.yul\":529:530   */\n      0x00\n        /* \"#utility.yul\":526:527   */\n      dup1\n        /* \"#utility.yul\":519:531   */\n      revert\n        /* \"#utility.yul\":470:533   */\n    tag_136:\n        /* \"#utility.yul\":417:539   */\n      pop\n      jump\t// out\n        /* \"#utility.yul\":545:684   */\n    tag_104:\n        /* \"#utility.yul\":591:596   */\n      0x00\n        /* \"#utility.yul\":629:635   */\n      dup2\n        /* \"#utility.yul\":616:636   */\n      calldataload\n        /* \"#utility.yul\":607:636   */\n      swap1\n      pop\n        /* \"#utility.yul\":645:678   */\n      tag_138\n        /* \"#utility.yul\":672:677   */\n      dup2\n        /* \"#utility.yul\":645:678   */\n      tag_103\n      jump\t// in\n    tag_138:\n        /* \"#utility.yul\":545:684   */\n      swap3\n      swap2\n      pop\n      pop\n      jump\t// out\n        /* \"#utility.yul\":690:1019   */\n    tag_22:\n        /* \"#utility.yul\":749:755   */\n      0x00\n        /* \"#utility.yul\":798:800   */\n      0x20\n        /* \"#utility.yul\":786:795   */\n      dup3\n        /* \"#utility.yul\":777:784   */\n      dup5\n        /* \"#utility.yul\":773:796   */\n      sub\n        /* \"#utility.yul\":769:801   */\n      slt\n        /* \"#utility.yul\":766:885   */\n      iszero\n      tag_140\n      jumpi\n        /* \"#utility.yul\":804:883   */\n      tag_141\n      tag_100\n      jump\t// in\n    tag_141:\n        /* \"#utility.yul\":766:885   */\n    tag_140:\n        /* \"#utility.yul\":924:925   */\n      0x00\n        /* \"#utility.yul\":949:1002   */\n      tag_142\n        /* \"#utility.yul\":994:1001   */\n      dup5\n        /* \"#utility.yul\":985:991   */\n      dup3\n        /* \"#utility.yul\":974:983   */\n      dup6\n        /* \"#utility.yul\":970:992   */\n      add\n        /* \"#utility.yul\":949:1002   */\n      tag_104\n      jump\t// in\n    tag_142:\n        /* \"#utility.yul\":939:1002   */\n      swap2\n      pop\n        /* \"#utility.yul\":895:1012   */\n      pop\n        /* \"#utility.yul\":690:1019   */\n      swap3\n      swap2\n      pop\n      pop\n      jump\t// out\n        /* \"#utility.yul\":1025:1143   */\n    tag_105:\n        /* \"#utility.yul\":1112:1136   */\n      tag_144\n        /* \"#utility.yul\":1130:1135   */\n      dup2\n        /* \"#utility.yul\":1112:1136   */\n      tag_102\n      jump\t// in\n    tag_144:\n        /* \"#utility.yul\":1107:1110   */\n      dup3\n        /* \"#utility.yul\":1100:1137   */\n      mstore\n        /* \"#utility.yul\":1025:1143   */\n      pop\n      pop\n      jump\t// out\n        /* \"#utility.yul\":1149:1371   */\n    tag_25:\n        /* \"#utility.yul\":1242:1246   */\n      0x00\n        /* \"#utility.yul\":1280:1282   */\n      0x20\n        /* \"#utility.yul\":1269:1278   */\n      dup3\n        /* \"#utility.yul\":1265:1283   */\n      add\n        /* \"#utility.yul\":1257:1283   */\n      swap1\n      pop\n        /* \"#utility.yul\":1293:1364   */\n      tag_146\n        /* \"#utility.yul\":1361:1362   */\n      0x00\n        /* \"#utility.yul\":1350:1359   */\n      dup4\n        /* \"#utility.yul\":1346:1363   */\n      add\n        /* \"#utility.yul\":1337:1343   */\n      dup5\n        /* \"#utility.yul\":1293:1364   */\n      tag_105\n      jump\t// in\n    tag_146:\n        /* \"#utility.yul\":1149:1371   */\n      swap3\n      swap2\n      pop\n      pop\n      jump\t// out\n        /* \"#utility.yul\":1377:1503   */\n    tag_106:\n        /* \"#utility.yul\":1414:1421   */\n      0x00\n        /* \"#utility.yul\":1454:1496   */\n      0xffffffffffffffffffffffffffffffffffffffff\n        /* \"#utility.yul\":1447:1452   */\n      dup3\n        /* \"#utility.yul\":1443:1497   */\n      and\n        /* \"#utility.yul\":1432:1497   */\n      swap1\n      pop\n        /* \"#utility.yul\":1377:1503   */\n      swap2\n      swap1\n      pop\n      jump\t// out\n        /* \"#utility.yul\":1509:1605   */\n    tag_107:\n        /* \"#utility.yul\":1546:1553   */\n      0x00\n        /* \"#utility.yul\":1575:1599   */\n      tag_149\n        /* \"#utility.yul\":1593:1598   */\n      dup3\n        /* \"#utility.yul\":1575:1599   */\n      tag_106\n      jump\t// in\n    tag_149:\n        /* \"#utility.yul\":1564:1599   */\n      swap1\n      pop\n        /* \"#utility.yul\":1509:1605   */\n      swap2\n      swap1\n      pop\n      jump\t// out\n        /* \"#utility.yul\":1611:1729   */\n    tag_108:\n        /* \"#utility.yul\":1698:1722   */\n      tag_151\n        /* \"#utility.yul\":1716:1721   */\n      dup2\n        /* \"#utility.yul\":1698:1722   */\n      tag_107\n      jump\t// in\n    tag_151:\n        /* \"#utility.yul\":1693:1696   */\n      dup3\n        /* \"#utility.yul\":1686:1723   */\n      mstore\n        /* \"#utility.yul\":1611:1729   */\n      pop\n      pop\n      jump\t// out\n        /* \"#utility.yul\":1735:1957   */\n    tag_32:\n        /* \"#utility.yul\":1828:1832   */\n      0x00\n        /* \"#utility.yul\":1866:1868   */\n      0x20\n        /* \"#utility.yul\":1855:1864   */\n      dup3\n        /* \"#utility.yul\":1851:1869   */\n      add\n        /* \"#utility.yul\":1843:1869   */\n      swap1\n      pop\n        /* \"#utility.yul\":1879:1950   */\n      tag_153\n        /* \"#utility.yul\":1947:1948   */\n      0x00\n        /* \"#utility.yul\":1936:1945   */\n      dup4\n        /* \"#utility.yul\":1932:1949   */\n      add\n        /* \"#utility.yul\":1923:1929   */\n      dup5\n        /* \"#utility.yul\":1879:1950   */\n      tag_108\n      jump\t// in\n    tag_153:\n        /* \"#utility.yul\":1735:1957   */\n      swap3\n      swap2\n      pop\n      pop\n      jump\t// out\n        /* \"#utility.yul\":1963:2437   */\n    tag_35:\n        /* \"#utility.yul\":2031:2037   */\n      0x00\n        /* \"#utility.yul\":2039:2045   */\n      dup1\n        /* \"#utility.yul\":2088:2090   */\n      0x40\n        /* \"#utility.yul\":2076:2085   */\n      dup4\n        /* \"#utility.yul\":2067:2074   */\n      dup6\n        /* \"#utility.yul\":2063:2086   */\n      sub\n        /* \"#utility.yul\":2059:2091   */\n      slt\n        /* \"#utility.yul\":2056:2175   */\n      iszero\n      tag_155\n      jumpi\n        /* \"#utility.yul\":2094:2173   */\n      tag_156\n      tag_100\n      jump\t// in\n    tag_156:\n        /* \"#utility.yul\":2056:2175   */\n    tag_155:\n        /* \"#utility.yul\":2214:2215   */\n      0x00\n        /* \"#utility.yul\":2239:2292   */\n      tag_157\n        /* \"#utility.yul\":2284:2291   */\n      dup6\n        /* \"#utility.yul\":2275:2281   */\n      dup3\n        /* \"#utility.yul\":2264:2273   */\n      dup7\n        /* \"#utility.yul\":2260:2282   */\n      add\n        /* \"#utility.yul\":2239:2292   */\n      tag_104\n      jump\t// in\n    tag_157:\n        /* \"#utility.yul\":2229:2292   */\n      swap3\n      pop\n        /* \"#utility.yul\":2185:2302   */\n      pop\n        /* \"#utility.yul\":2341:2343   */\n      0x20\n        /* \"#utility.yul\":2367:2420   */\n      tag_158\n        /* \"#utility.yul\":2412:2419   */\n      dup6\n        /* \"#utility.yul\":2403:2409   */\n      dup3\n        /* \"#utility.yul\":2392:2401   */\n      dup7\n        /* \"#utility.yul\":2388:2410   */\n      add\n        /* \"#utility.yul\":2367:2420   */\n      tag_104\n      jump\t// in\n    tag_158:\n        /* \"#utility.yul\":2357:2420   */\n      swap2\n      pop\n        /* \"#utility.yul\":2312:2430   */\n      pop\n        /* \"#utility.yul\":1963:2437   */\n      swap3\n      pop\n      swap3\n      swap1\n      pop\n      jump\t// out\n        /* \"#utility.yul\":2443:2592   */\n    tag_109:\n        /* \"#utility.yul\":2479:2486   */\n      0x00\n        /* \"#utility.yul\":2519:2585   */\n      0xff00000000000000000000000000000000000000000000000000000000000000\n        /* \"#utility.yul\":2512:2517   */\n      dup3\n        /* \"#utility.yul\":2508:2586   */\n      and\n        /* \"#utility.yul\":2497:2586   */\n      swap1\n      pop\n        /* \"#utility.yul\":2443:2592   */\n      swap2\n      swap1\n      pop\n      jump\t// out\n        /* \"#utility.yul\":2598:2713   */\n    tag_110:\n        /* \"#utility.yul\":2683:2706   */\n      tag_161\n        /* \"#utility.yul\":2700:2705   */\n      dup2\n        /* \"#utility.yul\":2683:2706   */\n      tag_109\n      jump\t// in\n    tag_161:\n        /* \"#utility.yul\":2678:2681   */\n      dup3\n        /* \"#utility.yul\":2671:2707   */\n      mstore\n        /* \"#utility.yul\":2598:2713   */\n      pop\n      pop\n      jump\t// out\n        /* \"#utility.yul\":2719:2937   */\n    tag_43:\n        /* \"#utility.yul\":2810:2814   */\n      0x00\n        /* \"#utility.yul\":2848:2850   */\n      0x20\n        /* \"#utility.yul\":2837:2846   */\n      dup3\n        /* \"#utility.yul\":2833:2851   */\n      add\n        /* \"#utility.yul\":2825:2851   */\n      swap1\n      pop\n        /* \"#utility.yul\":2861:2930   */\n      tag_163\n        /* \"#utility.yul\":2927:2928   */\n      0x00\n        /* \"#utility.yul\":2916:2925   */\n      dup4\n        /* \"#utility.yul\":2912:2929   */\n      add\n        /* \"#utility.yul\":2903:2909   */\n      dup5\n        /* \"#utility.yul\":2861:2930   */\n      tag_110\n      jump\t// in\n    tag_163:\n        /* \"#utility.yul\":2719:2937   */\n      swap3\n      swap2\n      pop\n      pop\n      jump\t// out\n        /* \"#utility.yul\":2943:3123   */\n    tag_111:\n        /* \"#utility.yul\":2991:3068   */\n      0x4e487b7100000000000000000000000000000000000000000000000000000000\n        /* \"#utility.yul\":2988:2989   */\n      0x00\n        /* \"#utility.yul\":2981:3069   */\n      mstore\n        /* \"#utility.yul\":3088:3092   */\n      0x21\n        /* \"#utility.yul\":3085:3086   */\n      0x04\n        /* \"#utility.yul\":3078:3093   */\n      mstore\n        /* \"#utility.yul\":3112:3116   */\n      0x24\n        /* \"#utility.yul\":3109:3110   */\n      0x00\n        /* \"#utility.yul\":3102:3117   */\n      revert\n        /* \"#utility.yul\":3129:3246   */\n    tag_112:\n        /* \"#utility.yul\":3214:3215   */\n      0x03\n        /* \"#utility.yul\":3207:3212   */\n      dup2\n        /* \"#utility.yul\":3204:3216   */\n      lt\n        /* \"#utility.yul\":3194:3240   */\n      tag_166\n      jumpi\n        /* \"#utility.yul\":3220:3238   */\n      tag_167\n      tag_111\n      jump\t// in\n    tag_167:\n        /* \"#utility.yul\":3194:3240   */\n    tag_166:\n        /* \"#utility.yul\":3129:3246   */\n      pop\n      jump\t// out\n        /* \"#utility.yul\":3252:3387   */\n    tag_113:\n        /* \"#utility.yul\":3301:3308   */\n      0x00\n        /* \"#utility.yul\":3330:3335   */\n      dup2\n        /* \"#utility.yul\":3319:3335   */\n      swap1\n      pop\n        /* \"#utility.yul\":3336:3381   */\n      tag_169\n        /* \"#utility.yul\":3375:3380   */\n      dup3\n        /* \"#utility.yul\":3336:3381   */\n      tag_112\n      jump\t// in\n    tag_169:\n        /* \"#utility.yul\":3252:3387   */\n      swap2\n      swap1\n      pop\n      jump\t// out\n        /* \"#utility.yul\":3393:3528   */\n    tag_114:\n        /* \"#utility.yul\":3453:3462   */\n      0x00\n        /* \"#utility.yul\":3486:3522   */\n      tag_171\n        /* \"#utility.yul\":3516:3521   */\n      dup3\n        /* \"#utility.yul\":3486:3522   */\n      tag_113\n      jump\t// in\n    tag_171:\n        /* \"#utility.yul\":3473:3522   */\n      swap1\n      pop\n        /* \"#utility.yul\":3393:3528   */\n      swap2\n      swap1\n      pop\n      jump\t// out\n        /* \"#utility.yul\":3534:3685   */\n    tag_115:\n        /* \"#utility.yul\":3631:3678   */\n      tag_173\n        /* \"#utility.yul\":3672:3677   */\n      dup2\n        /* \"#utility.yul\":3631:3678   */\n      tag_114\n      jump\t// in\n    tag_173:\n        /* \"#utility.yul\":3626:3629   */\n      dup3\n        /* \"#utility.yul\":3619:3679   */\n      mstore\n        /* \"#utility.yul\":3534:3685   */\n      pop\n      pop\n      jump\t// out\n        /* \"#utility.yul\":3691:3933   */\n    tag_47:\n        /* \"#utility.yul\":3794:3798   */\n      0x00\n        /* \"#utility.yul\":3832:3834   */\n      0x20\n        /* \"#utility.yul\":3821:3830   */\n      dup3\n        /* \"#utility.yul\":3817:3835   */\n      add\n        /* \"#utility.yul\":3809:3835   */\n      swap1\n      pop\n        /* \"#utility.yul\":3845:3926   */\n      tag_175\n        /* \"#utility.yul\":3923:3924   */\n      0x00\n        /* \"#utility.yul\":3912:3921   */\n      dup4\n        /* \"#utility.yul\":3908:3925   */\n      add\n        /* \"#utility.yul\":3899:3905   */\n      dup5\n        /* \"#utility.yul\":3845:3926   */\n      tag_115\n      jump\t// in\n    tag_175:\n        /* \"#utility.yul\":3691:3933   */\n      swap3\n      swap2\n      pop\n      pop\n      jump\t// out\n        /* \"#utility.yul\":3939:4037   */\n    tag_116:\n        /* \"#utility.yul\":3990:3996   */\n      0x00\n        /* \"#utility.yul\":4024:4029   */\n      dup2\n        /* \"#utility.yul\":4018:4030   */\n      mload\n        /* \"#utility.yul\":4008:4030   */\n      swap1\n      pop\n        /* \"#utility.yul\":3939:4037   */\n      swap2\n      swap1\n      pop\n      jump\t// out\n        /* \"#utility.yul\":4043:4211   */\n    tag_117:\n        /* \"#utility.yul\":4126:4137   */\n      0x00\n        /* \"#utility.yul\":4160:4166   */\n      dup3\n        /* \"#utility.yul\":4155:4158   */\n      dup3\n        /* \"#utility.yul\":4148:4167   */\n      mstore\n        /* \"#utility.yul\":4200:4204   */\n      0x20\n        /* \"#utility.yul\":4195:4198   */\n      dup3\n        /* \"#utility.yul\":4191:4205   */\n      add\n        /* \"#utility.yul\":4176:4205   */\n      swap1\n      pop\n        /* \"#utility.yul\":4043:4211   */\n      swap3\n      swap2\n      pop\n      pop\n      jump\t// out\n        /* \"#utility.yul\":4217:4356   */\n    tag_118:\n        /* \"#utility.yul\":4306:4312   */\n      dup3\n        /* \"#utility.yul\":4301:4304   */\n      dup2\n        /* \"#utility.yul\":4296:4299   */\n      dup4\n        /* \"#utility.yul\":4290:4313   */\n      mcopy\n        /* \"#utility.yul\":4347:4348   */\n      0x00\n        /* \"#utility.yul\":4338:4344   */\n      dup4\n        /* \"#utility.yul\":4333:4336   */\n      dup4\n        /* \"#utility.yul\":4329:4345   */\n      add\n        /* \"#utility.yul\":4322:4349   */\n      mstore\n        /* \"#utility.yul\":4217:4356   */\n      pop\n      pop\n      pop\n      jump\t// out\n        /* \"#utility.yul\":4362:4464   */\n    tag_119:\n        /* \"#utility.yul\":4403:4409   */\n      0x00\n        /* \"#utility.yul\":4454:4456   */\n      0x1f\n        /* \"#utility.yul\":4450:4457   */\n      not\n        /* \"#utility.yul\":4445:4447   */\n      0x1f\n        /* \"#utility.yul\":4438:4443   */\n      dup4\n        /* \"#utility.yul\":4434:4448   */\n      add\n        /* \"#utility.yul\":4430:4458   */\n      and\n        /* \"#utility.yul\":4420:4458   */\n      swap1\n      pop\n        /* \"#utility.yul\":4362:4464   */\n      swap2\n      swap1\n      pop\n      jump\t// out\n        /* \"#utility.yul\":4470:4843   */\n    tag_120:\n        /* \"#utility.yul\":4556:4559   */\n      0x00\n        /* \"#utility.yul\":4584:4622   */\n      tag_181\n        /* \"#utility.yul\":4616:4621   */\n      dup3\n        /* \"#utility.yul\":4584:4622   */\n      tag_116\n      jump\t// in\n    tag_181:\n        /* \"#utility.yul\":4638:4708   */\n      tag_182\n        /* \"#utility.yul\":4701:4707   */\n      dup2\n        /* \"#utility.yul\":4696:4699   */\n      dup6\n        /* \"#utility.yul\":4638:4708   */\n      tag_117\n      jump\t// in\n    tag_182:\n        /* \"#utility.yul\":4631:4708   */\n      swap4\n      pop\n        /* \"#utility.yul\":4717:4782   */\n      tag_183\n        /* \"#utility.yul\":4775:4781   */\n      dup2\n        /* \"#utility.yul\":4770:4773   */\n      dup6\n        /* \"#utility.yul\":4763:4767   */\n      0x20\n        /* \"#utility.yul\":4756:4761   */\n      dup7\n        /* \"#utility.yul\":4752:4768   */\n      add\n        /* \"#utility.yul\":4717:4782   */\n      tag_118\n      jump\t// in\n    tag_183:\n        /* \"#utility.yul\":4807:4836   */\n      tag_184\n        /* \"#utility.yul\":4829:4835   */\n      dup2\n        /* \"#utility.yul\":4807:4836   */\n      tag_119\n      jump\t// in\n    tag_184:\n        /* \"#utility.yul\":4802:4805   */\n      dup5\n        /* \"#utility.yul\":4798:4837   */\n      add\n        /* \"#utility.yul\":4791:4837   */\n      swap2\n      pop\n        /* \"#utility.yul\":4560:4843   */\n      pop\n        /* \"#utility.yul\":4470:4843   */\n      swap3\n      swap2\n      pop\n      pop\n      jump\t// out\n        /* \"#utility.yul\":4849:5158   */\n    tag_51:\n        /* \"#utility.yul\":4960:4964   */\n      0x00\n        /* \"#utility.yul\":4998:5000   */\n      0x20\n        /* \"#utility.yul\":4987:4996   */\n      dup3\n        /* \"#utility.yul\":4983:5001   */\n      add\n        /* \"#utility.yul\":4975:5001   */\n      swap1\n      pop\n        /* \"#utility.yul\":5047:5056   */\n      dup2\n        /* \"#utility.yul\":5041:5045   */\n      dup2\n        /* \"#utility.yul\":5037:5057   */\n      sub\n        /* \"#utility.yul\":5033:5034   */\n      0x00\n        /* \"#utility.yul\":5022:5031   */\n      dup4\n        /* \"#utility.yul\":5018:5035   */\n      add\n        /* \"#utility.yul\":5011:5058   */\n      mstore\n        /* \"#utility.yul\":5075:5151   */\n      tag_186\n        /* \"#utility.yul\":5146:5150   */\n      dup2\n        /* \"#utility.yul\":5137:5143   */\n      dup5\n        /* \"#utility.yul\":5075:5151   */\n      tag_120\n      jump\t// in\n    tag_186:\n        /* \"#utility.yul\":5067:5151   */\n      swap1\n      pop\n        /* \"#utility.yul\":4849:5158   */\n      swap3\n      swap2\n      pop\n      pop\n      jump\t// out\n        /* \"#utility.yul\":5164:5263   */\n    tag_121:\n        /* \"#utility.yul\":5216:5222   */\n      0x00\n        /* \"#utility.yul\":5250:5255   */\n      dup2\n        /* \"#utility.yul\":5244:5256   */\n      mload\n        /* \"#utility.yul\":5234:5256   */\n      swap1\n      pop\n        /* \"#utility.yul\":5164:5263   */\n      swap2\n      swap1\n      pop\n      jump\t// out\n        /* \"#utility.yul\":5269:5438   */\n    tag_122:\n        /* \"#utility.yul\":5353:5364   */\n      0x00\n        /* \"#utility.yul\":5387:5393   */\n      dup3\n        /* \"#utility.yul\":5382:5385   */\n      dup3\n        /* \"#utility.yul\":5375:5394   */\n      mstore\n        /* \"#utility.yul\":5427:5431   */\n      0x20\n        /* \"#utility.yul\":5422:5425   */\n      dup3\n        /* \"#utility.yul\":5418:5432   */\n      add\n        /* \"#utility.yul\":5403:5432   */\n      swap1\n      pop\n        /* \"#utility.yul\":5269:5438   */\n      swap3\n      swap2\n      pop\n      pop\n      jump\t// out\n        /* \"#utility.yul\":5444:5821   */\n    tag_123:\n        /* \"#utility.yul\":5532:5535   */\n      0x00\n        /* \"#utility.yul\":5560:5599   */\n      tag_190\n        /* \"#utility.yul\":5593:5598   */\n      dup3\n        /* \"#utility.yul\":5560:5599   */\n      tag_121\n      jump\t// in\n    tag_190:\n        /* \"#utility.yul\":5615:5686   */\n      tag_191\n        /* \"#utility.yul\":5679:5685   */\n      dup2\n        /* \"#utility.yul\":5674:5677   */\n      dup6\n        /* \"#utility.yul\":5615:5686   */\n      tag_122\n      jump\t// in\n    tag_191:\n        /* \"#utility.yul\":5608:5686   */\n      swap4\n      pop\n        /* \"#utility.yul\":5695:5760   */\n      tag_192\n        /* \"#utility.yul\":5753:5759   */\n      dup2\n        /* \"#utility.yul\":5748:5751   */\n      dup6\n        /* \"#utility.yul\":5741:5745   */\n      0x20\n        /* \"#utility.yul\":5734:5739   */\n      dup7\n        /* \"#utility.yul\":5730:5746   */\n      add\n        /* \"#utility.yul\":5695:5760   */\n      tag_118\n      jump\t// in\n    tag_192:\n        /* \"#utility.yul\":5785:5814   */\n      tag_193\n        /* \"#utility.yul\":5807:5813   */\n      dup2\n        /* \"#utility.yul\":5785:5814   */\n      tag_119\n      jump\t// in\n    tag_193:\n        /* \"#utility.yul\":5780:5783   */\n      dup5\n        /* \"#utility.yul\":5776:5815   */\n      add\n        /* \"#utility.yul\":5769:5815   */\n      swap2\n      pop\n        /* \"#utility.yul\":5536:5821   */\n      pop\n        /* \"#utility.yul\":5444:5821   */\n      swap3\n      swap2\n      pop\n      pop\n      jump\t// out\n        /* \"#utility.yul\":5827:6140   */\n    tag_61:\n        /* \"#utility.yul\":5940:5944   */\n      0x00\n        /* \"#utility.yul\":5978:5980   */\n      0x20\n        /* \"#utility.yul\":5967:5976   */\n      dup3\n        /* \"#utility.yul\":5963:5981   */\n      add\n        /* \"#utility.yul\":5955:5981   */\n      swap1\n      pop\n        /* \"#utility.yul\":6027:6036   */\n      dup2\n        /* \"#utility.yul\":6021:6025   */\n      dup2\n        /* \"#utility.yul\":6017:6037   */\n      sub\n        /* \"#utility.yul\":6013:6014   */\n      0x00\n        /* \"#utility.yul\":6002:6011   */\n      dup4\n        /* \"#utility.yul\":5998:6015   */\n      add\n        /* \"#utility.yul\":5991:6038   */\n      mstore\n        /* \"#utility.yul\":6055:6133   */\n      tag_195\n        /* \"#utility.yul\":6128:6132   */\n      dup2\n        /* \"#utility.yul\":6119:6125   */\n      dup5\n        /* \"#utility.yul\":6055:6133   */\n      tag_123\n      jump\t// in\n    tag_195:\n        /* \"#utility.yul\":6047:6133   */\n      swap1\n      pop\n        /* \"#utility.yul\":5827:6140   */\n      swap3\n      swap2\n      pop\n      pop\n      jump\t// out\n        /* \"#utility.yul\":6146:6236   */\n    tag_124:\n        /* \"#utility.yul\":6180:6187   */\n      0x00\n        /* \"#utility.yul\":6223:6228   */\n      dup2\n        /* \"#utility.yul\":6216:6229   */\n      iszero\n        /* \"#utility.yul\":6209:6230   */\n      iszero\n        /* \"#utility.yul\":6198:6230   */\n      swap1\n      pop\n        /* \"#utility.yul\":6146:6236   */\n      swap2\n      swap1\n      pop\n      jump\t// out\n        /* \"#utility.yul\":6242:6351   */\n    tag_125:\n        /* \"#utility.yul\":6323:6344   */\n      tag_198\n        /* \"#utility.yul\":6338:6343   */\n      dup2\n        /* \"#utility.yul\":6323:6344   */\n      tag_124\n      jump\t// in\n    tag_198:\n        /* \"#utility.yul\":6318:6321   */\n      dup3\n        /* \"#utility.yul\":6311:6345   */\n      mstore\n        /* \"#utility.yul\":6242:6351   */\n      pop\n      pop\n      jump\t// out\n        /* \"#utility.yul\":6357:6567   */\n    tag_65:\n        /* \"#utility.yul\":6444:6448   */\n      0x00\n        /* \"#utility.yul\":6482:6484   */\n      0x20\n        /* \"#utility.yul\":6471:6480   */\n      dup3\n        /* \"#utility.yul\":6467:6485   */\n      add\n        /* \"#utility.yul\":6459:6485   */\n      swap1\n      pop\n        /* \"#utility.yul\":6495:6560   */\n      tag_200\n        /* \"#utility.yul\":6557:6558   */\n      0x00\n        /* \"#utility.yul\":6546:6555   */\n      dup4\n        /* \"#utility.yul\":6542:6559   */\n      add\n        /* \"#utility.yul\":6533:6539   */\n      dup5\n        /* \"#utility.yul\":6495:6560   */\n      tag_125\n      jump\t// in\n    tag_200:\n        /* \"#utility.yul\":6357:6567   */\n      swap3\n      swap2\n      pop\n      pop\n      jump\t// out\n        /* \"#utility.yul\":6573:6649   */\n    tag_126:\n        /* \"#utility.yul\":6609:6616   */\n      0x00\n        /* \"#utility.yul\":6638:6643   */\n      dup2\n        /* \"#utility.yul\":6627:6643   */\n      swap1\n      pop\n        /* \"#utility.yul\":6573:6649   */\n      swap2\n      swap1\n      pop\n      jump\t// out\n        /* \"#utility.yul\":6655:6770   */\n    tag_127:\n        /* \"#utility.yul\":6740:6763   */\n      tag_203\n        /* \"#utility.yul\":6757:6762   */\n      dup2\n        /* \"#utility.yul\":6740:6763   */\n      tag_126\n      jump\t// in\n    tag_203:\n        /* \"#utility.yul\":6735:6738   */\n      dup3\n        /* \"#utility.yul\":6728:6764   */\n      mstore\n        /* \"#utility.yul\":6655:6770   */\n      pop\n      pop\n      jump\t// out\n        /* \"#utility.yul\":6776:6994   */\n    tag_73:\n        /* \"#utility.yul\":6867:6871   */\n      0x00\n        /* \"#utility.yul\":6905:6907   */\n      0x20\n        /* \"#utility.yul\":6894:6903   */\n      dup3\n        /* \"#utility.yul\":6890:6908   */\n      add\n        /* \"#utility.yul\":6882:6908   */\n      swap1\n      pop\n        /* \"#utility.yul\":6918:6987   */\n      tag_205\n        /* \"#utility.yul\":6984:6985   */\n      0x00\n        /* \"#utility.yul\":6973:6982   */\n      dup4\n        /* \"#utility.yul\":6969:6986   */\n      add\n        /* \"#utility.yul\":6960:6966   */\n      dup5\n        /* \"#utility.yul\":6918:6987   */\n      tag_127\n      jump\t// in\n    tag_205:\n        /* \"#utility.yul\":6776:6994   */\n      swap3\n      swap2\n      pop\n      pop\n      jump\t// out\n        /* \"#utility.yul\":7000:7180   */\n    tag_79:\n        /* \"#utility.yul\":7048:7125   */\n      0x4e487b7100000000000000000000000000000000000000000000000000000000\n        /* \"#utility.yul\":7045:7046   */\n      0x00\n        /* \"#utility.yul\":7038:7126   */\n      mstore\n        /* \"#utility.yul\":7145:7149   */\n      0x32\n        /* \"#utility.yul\":7142:7143   */\n      0x04\n        /* \"#utility.yul\":7135:7150   */\n      mstore\n        /* \"#utility.yul\":7169:7173   */\n      0x24\n        /* \"#utility.yul\":7166:7167   */\n      0x00\n        /* \"#utility.yul\":7159:7174   */\n      revert\n        /* \"#utility.yul\":7186:7366   */\n    tag_128:\n        /* \"#utility.yul\":7234:7311   */\n      0x4e487b7100000000000000000000000000000000000000000000000000000000\n        /* \"#utility.yul\":7231:7232   */\n      0x00\n        /* \"#utility.yul\":7224:7312   */\n      mstore\n        /* \"#utility.yul\":7331:7335   */\n      0x22\n        /* \"#utility.yul\":7328:7329   */\n      0x04\n        /* \"#utility.yul\":7321:7336   */\n      mstore\n        /* \"#utility.yul\":7355:7359   */\n      0x24\n        /* \"#utility.yul\":7352:7353   */\n      0x00\n        /* \"#utility.yul\":7345:7360   */\n      revert\n        /* \"#utility.yul\":7372:7692   */\n    tag_86:\n        /* \"#utility.yul\":7416:7422   */\n      0x00\n        /* \"#utility.yul\":7453:7454   */\n      0x02\n        /* \"#utility.yul\":7447:7451   */\n      dup3\n        /* \"#utility.yul\":7443:7455   */\n      div\n        /* \"#utility.yul\":7433:7455   */\n      swap1\n      pop\n        /* \"#utility.yul\":7500:7501   */\n      0x01\n        /* \"#utility.yul\":7494:7498   */\n      dup3\n        /* \"#utility.yul\":7490:7502   */\n      and\n        /* \"#utility.yul\":7521:7539   */\n      dup1\n        /* \"#utility.yul\":7511:7592   */\n      tag_209\n      jumpi\n        /* \"#utility.yul\":7577:7581   */\n      0x7f\n        /* \"#utility.yul\":7569:7575   */\n      dup3\n        /* \"#utility.yul\":7565:7582   */\n      and\n        /* \"#utility.yul\":7555:7582   */\n      swap2\n      pop\n        /* \"#utility.yul\":7511:7592   */\n    tag_209:\n        /* \"#utility.yul\":7639:7641   */\n      0x20\n        /* \"#utility.yul\":7631:7637   */\n      dup3\n        /* \"#utility.yul\":7628:7642   */\n      lt\n        /* \"#utility.yul\":7608:7626   */\n      dup2\n        /* \"#utility.yul\":7605:7643   */\n      sub\n        /* \"#utility.yul\":7602:7686   */\n      tag_210\n      jumpi\n        /* \"#utility.yul\":7658:7676   */\n      tag_211\n      tag_128\n      jump\t// in\n    tag_211:\n        /* \"#utility.yul\":7602:7686   */\n    tag_210:\n        /* \"#utility.yul\":7423:7692   */\n      pop\n        /* \"#utility.yul\":7372:7692   */\n      swap2\n      swap1\n      pop\n      jump\t// out\n\n    auxdata: 0xa2646970667358221220427612fb153825b1726af9080cb8d5f06bee30b855ab4ee54e57d928cfe79fe764736f6c634300081a0033\n}\n",
				"bytecode": {
					"linkReferences": {},
					"object": "6080604052348015600e575f80fd5b506109068061001c5f395ff3fe608060405234801561000f575f80fd5b50600436106100e8575f3560e01c80634f50ea8d1161008a5780639b267f09116100645780639b267f09146102245780639e6ba9c214610242578063a2ba3ee414610260578063af45869e14610290576100e8565b80634f50ea8d146101cc57806386ed6eac146101ea578063906afbba146101f4576100e8565b80631e117e22116100c65780631e117e22146101565780632543135b1461017257806329f789e91461019057806330c0826f146101ae576100e8565b806312b7b142146100ec578063143236a51461011c57806318bad21714610138575b5f80fd5b61010660048036038101906101019190610518565b6102ae565b6040516101139190610552565b60405180910390f35b61013660048036038101906101319190610518565b6102c7565b005b6101406102e2565b60405161014d91906105aa565b60405180910390f35b610170600480360381019061016b91906105c3565b610307565b005b61017a610325565b6040516101879190610552565b60405180910390f35b61019861032b565b6040516101a5919061063b565b60405180910390f35b6101b661033d565b6040516101c391906106c7565b60405180910390f35b6101d4610350565b6040516101e19190610750565b60405180910390f35b6101f26103dc565b005b61020e60048036038101906102099190610518565b6103de565b60405161021b919061063b565b60405180910390f35b61022c61040f565b60405161023991906107c2565b60405180910390f35b61024a61049b565b60405161025791906107fc565b60405180910390f35b61027a60048036038101906102759190610518565b6104ab565b60405161028791906105aa565b60405180910390f35b6102986104db565b6040516102a5919061082d565b60405180910390f35b600581600881106102bd575f80fd5b015f915090505481565b600581600881106102db576102da610846565b5b015f905550565b60045f9054906101000a900473ffffffffffffffffffffffffffffffffffffffff1681565b806005836008811061031c5761031b610846565b5b01819055505050565b60035481565b600f5f9054906101000a900460f81b81565b600460149054906101000a900460ff1681565b6010805461035d906108a0565b80601f0160208091040260200160405190810160405280929190818152602001828054610389906108a0565b80156103d45780601f106103ab576101008083540402835291602001916103d4565b820191905f5260205f20905b8154815290600101906020018083116103b757829003601f168201915b505050505081565b565b600e81815481106103ed575f80fd5b905f5260205f209060209182820401919006915054906101000a900460f81b81565b6001805461041c906108a0565b80601f0160208091040260200160405190810160405280929190818152602001828054610448906108a0565b80156104935780601f1061046a57610100808354040283529160200191610493565b820191905f5260205f20905b81548152906001019060200180831161047657829003601f168201915b505050505081565b5f8054906101000a900460ff1681565b600d602052805f5260405f205f915054906101000a900473ffffffffffffffffffffffffffffffffffffffff1681565b60025481565b5f80fd5b5f819050919050565b6104f7816104e5565b8114610501575f80fd5b50565b5f81359050610512816104ee565b92915050565b5f6020828403121561052d5761052c6104e1565b5b5f61053a84828501610504565b91505092915050565b61054c816104e5565b82525050565b5f6020820190506105655f830184610543565b92915050565b5f73ffffffffffffffffffffffffffffffffffffffff82169050919050565b5f6105948261056b565b9050919050565b6105a48161058a565b82525050565b5f6020820190506105bd5f83018461059b565b92915050565b5f80604083850312156105d9576105d86104e1565b5b5f6105e685828601610504565b92505060206105f785828601610504565b9150509250929050565b5f7fff0000000000000000000000000000000000000000000000000000000000000082169050919050565b61063581610601565b82525050565b5f60208201905061064e5f83018461062c565b92915050565b7f4e487b71000000000000000000000000000000000000000000000000000000005f52602160045260245ffd5b6003811061069257610691610654565b5b50565b5f8190506106a282610681565b919050565b5f6106b182610695565b9050919050565b6106c1816106a7565b82525050565b5f6020820190506106da5f8301846106b8565b92915050565b5f81519050919050565b5f82825260208201905092915050565b8281835e5f83830152505050565b5f601f19601f8301169050919050565b5f610722826106e0565b61072c81856106ea565b935061073c8185602086016106fa565b61074581610708565b840191505092915050565b5f6020820190508181035f8301526107688184610718565b905092915050565b5f81519050919050565b5f82825260208201905092915050565b5f61079482610770565b61079e818561077a565b93506107ae8185602086016106fa565b6107b781610708565b840191505092915050565b5f6020820190508181035f8301526107da818461078a565b905092915050565b5f8115159050919050565b6107f6816107e2565b82525050565b5f60208201905061080f5f8301846107ed565b92915050565b5f819050919050565b61082781610815565b82525050565b5f6020820190506108405f83018461081e565b92915050565b7f4e487b71000000000000000000000000000000000000000000000000000000005f52603260045260245ffd5b7f4e487b71000000000000000000000000000000000000000000000000000000005f52602260045260245ffd5b5f60028204905060018216806108b757607f821691505b6020821081036108ca576108c9610873565b5b5091905056fea2646970667358221220427612fb153825b1726af9080cb8d5f06bee30b855ab4ee54e57d928cfe79fe764736f6c634300081a0033",
					"opcodes": "PUSH1 0x80 PUSH1 0x40 MSTORE CALLVALUE DUP1 ISZERO PUSH1 0xE JUMPI PUSH0 DUP1 REVERT JUMPDEST POP PUSH2 0x906 DUP1 PUSH2 0x1C PUSH0 CODECOPY PUSH0 RETURN INVALID PUSH1 0x80 PUSH1 0x40 MSTORE CALLVALUE DUP1 ISZERO PUSH2 0xF JUMPI PUSH0 DUP1 REVERT JUMPDEST POP PUSH1 0x4 CALLDATASIZE LT PUSH2 0xE8 JUMPI PUSH0 CALLDATALOAD PUSH1 0xE0 SHR DUP1 PUSH4 0x4F50EA8D GT PUSH2 0x8A JUMPI DUP1 PUSH4 0x9B267F09 GT PUSH2 0x64 JUMPI DUP1 PUSH4 0x9B267F09 EQ PUSH2 0x224 JUMPI DUP1 PUSH4 0x9E6BA9C2 EQ PUSH2 0x242 JUMPI DUP1 PUSH4 0xA2BA3EE4 EQ PUSH2 0x260 JUMPI DUP1 PUSH4 0xAF45869E EQ PUSH2 0x290 JUMPI PUSH2 0xE8 JUMP JUMPDEST DUP1 PUSH4 0x4F50EA8D EQ PUSH2 0x1CC JUMPI DUP1 PUSH4 0x86ED6EAC EQ PUSH2 0x1EA JUMPI DUP1 PUSH4 0x906AFBBA EQ PUSH2 0x1F4 JUMPI PUSH2 0xE8 JUMP JUMPDEST DUP1 PUSH4 0x1E117E22 GT PUSH2 0xC6 JUMPI DUP1 PUSH4 0x1E117E22 EQ PUSH2 0x156 JUMPI DUP1 PUSH4 0x2543135B EQ PUSH2 0x172 JUMPI DUP1 PUSH4 0x29F789E9 EQ PUSH2 0x190 JUMPI DUP1 PUSH4 0x30C0826F EQ PUSH2 0x1AE JUMPI PUSH2 0xE8 JUMP JUMPDEST DUP1 PUSH4 0x12B7B142 EQ PUSH2 0xEC JUMPI DUP1 PUSH4 0x143236A5 EQ PUSH2 0x11C JUMPI DUP1 PUSH4 0x18BAD217 EQ PUSH2 0x138 JUMPI JUMPDEST PUSH0 DUP1 REVERT JUMPDEST PUSH2 0x106 PUSH1 0x4 DUP1 CALLDATASIZE SUB DUP2 ADD SWAP1 PUSH2 0x101 SWAP2 SWAP1 PUSH2 0x518 JUMP JUMPDEST PUSH2 0x2AE JUMP JUMPDEST PUSH1 0x40 MLOAD PUSH2 0x113 SWAP2 SWAP1 PUSH2 0x552 JUMP JUMPDEST PUSH1 0x40 MLOAD DUP1 SWAP2 SUB SWAP1 RETURN JUMPDEST PUSH2 0x136 PUSH1 0x4 DUP1 CALLDATASIZE SUB DUP2 ADD SWAP1 PUSH2 0x131 SWAP2 SWAP1 PUSH2 0x518 JUMP JUMPDEST PUSH2 0x2C7 JUMP JUMPDEST STOP JUMPDEST PUSH2 0x140 PUSH2 0x2E2 JUMP JUMPDEST PUSH1 0x40 MLOAD PUSH2 0x14D SWAP2 SWAP1 PUSH2 0x5AA JUMP JUMPDEST PUSH1 0x40 MLOAD DUP1 SWAP2 SUB SWAP1 RETURN JUMPDEST PUSH2 0x170 PUSH1 0x4 DUP1 CALLDATASIZE SUB DUP2 ADD SWAP1 PUSH2 0x16B SWAP2 SWAP1 PUSH2 0x5C3 JUMP JUMPDEST PUSH2 0x307 JUMP JUMPDEST STOP JUMPDEST PUSH2 0x17A PUSH2 0x325 JUMP JUMPDEST PUSH1 0x40 MLOAD PUSH2 0x187 SWAP2 SWAP1 PUSH2 0x552 JUMP JUMPDEST PUSH1 0x40 MLOAD DUP1 SWAP2 SUB SWAP1 RETURN JUMPDEST PUSH2 0x198 PUSH2 0x32B JUMP JUMPDEST PUSH1 0x40 MLOAD PUSH2 0x1A5 SWAP2 SWAP1 PUSH2 0x63B JUMP JUMPDEST PUSH1 0x40 MLOAD DUP1 SWAP2 SUB SWAP1 RETURN JUMPDEST PUSH2 0x1B6 PUSH2 0x33D JUMP JUMPDEST PUSH1 0x40 MLOAD PUSH2 0x1C3 SWAP2 SWAP1 PUSH2 0x6C7 JUMP JUMPDEST PUSH1 0x40 MLOAD DUP1 SWAP2 SUB SWAP1 RETURN JUMPDEST PUSH2 0x1D4 PUSH2 0x350 JUMP JUMPDEST PUSH1 0x40 MLOAD PUSH2 0x1E1 SWAP2 SWAP1 PUSH2 0x750 JUMP JUMPDEST PUSH1 0x40 MLOAD DUP1 SWAP2 SUB SWAP1 RETURN JUMPDEST PUSH2 0x1F2 PUSH2 0x3DC JUMP JUMPDEST STOP JUMPDEST PUSH2 0x20E PUSH1 0x4 DUP1 CALLDATASIZE SUB DUP2 ADD SWAP1 PUSH2 0x209 SWAP2 SWAP1 PUSH2 0x518 JUMP JUMPDEST PUSH2 0x3DE JUMP JUMPDEST PUSH1 0x40 MLOAD PUSH2 0x21B SWAP2 SWAP1 PUSH2 0x63B JUMP JUMPDEST PUSH1 0x40 MLOAD DUP1 SWAP2 SUB SWAP1 RETURN JUMPDEST PUSH2 0x22C PUSH2 0x40F JUMP JUMPDEST PUSH1 0x40 MLOAD PUSH2 0x239 SWAP2 SWAP1 PUSH2 0x7C2 JUMP JUMPDEST PUSH1 0x40 MLOAD DUP1 SWAP2 SUB SWAP1 RETURN JUMPDEST PUSH2 0x24A PUSH2 0x49B JUMP JUMPDEST PUSH1 0x40 MLOAD PUSH2 0x257 SWAP2 SWAP1 PUSH2 0x7FC JUMP JUMPDEST PUSH1 0x40 MLOAD DUP1 SWAP2 SUB SWAP1 RETURN JUMPDEST PUSH2 0x27A PUSH1 0x4 DUP1 CALLDATASIZE SUB DUP2 ADD SWAP1 PUSH2 0x275 SWAP2 SWAP1 PUSH2 0x518 JUMP JUMPDEST PUSH2 0x4AB JUMP JUMPDEST PUSH1 0x40 MLOAD PUSH2 0x287 SWAP2 SWAP1 PUSH2 0x5AA JUMP JUMPDEST PUSH1 0x40 MLOAD DUP1 SWAP2 SUB SWAP1 RETURN JUMPDEST PUSH2 0x298 PUSH2 0x4DB JUMP JUMPDEST PUSH1 0x40 MLOAD PUSH2 0x2A5 SWAP2 SWAP1 PUSH2 0x82D JUMP JUMPDEST PUSH1 0x40 MLOAD DUP1 SWAP2 SUB SWAP1 RETURN JUMPDEST PUSH1 0x5 DUP2 PUSH1 0x8 DUP2 LT PUSH2 0x2BD JUMPI PUSH0 DUP1 REVERT JUMPDEST ADD PUSH0 SWAP2 POP SWAP1 POP SLOAD DUP2 JUMP JUMPDEST PUSH1 0x5 DUP2 PUSH1 0x8 DUP2 LT PUSH2 0x2DB JUMPI PUSH2 0x2DA PUSH2 0x846 JUMP JUMPDEST JUMPDEST ADD PUSH0 SWAP1 SSTORE POP JUMP JUMPDEST PUSH1 0x4 PUSH0 SWAP1 SLOAD SWAP1 PUSH2 0x100 EXP SWAP1 DIV PUSH20 0xFFFFFFFFFFFFFFFFFFFFFFFFFFFFFFFFFFFFFFFF AND DUP2 JUMP JUMPDEST DUP1 PUSH1 0x5 DUP4 PUSH1 0x8 DUP2 LT PUSH2 0x31C JUMPI PUSH2 0x31B PUSH2 0x846 JUMP JUMPDEST JUMPDEST ADD DUP2 SWAP1 SSTORE POP POP POP JUMP JUMPDEST PUSH1 0x3 SLOAD DUP2 JUMP JUMPDEST PUSH1 0xF PUSH0 SWAP1 SLOAD SWAP1 PUSH2 0x100 EXP SWAP1 DIV PUSH1 0xF8 SHL DUP2 JUMP JUMPDEST PUSH1 0x4 PUSH1 0x14 SWAP1 SLOAD SWAP1 PUSH2 0x100 EXP SWAP1 DIV PUSH1 0xFF AND DUP2 JUMP JUMPDEST PUSH1 0x10 DUP1 SLOAD PUSH2 0x35D SWAP1 PUSH2 0x8A0 JUMP JUMPDEST DUP1 PUSH1 0x1F ADD PUSH1 0x20 DUP1 SWAP2 DIV MUL PUSH1 0x20 ADD PUSH1 0x40 MLOAD SWAP1 DUP2 ADD PUSH1 0x40 MSTORE DUP1 SWAP3 SWAP2 SWAP1 DUP2 DUP2 MSTORE PUSH1 0x20 ADD DUP3 DUP1 SLOAD PUSH2 0x389 SWAP1 PUSH2 0x8A0 JUMP JUMPDEST DUP1 ISZERO PUSH2 0x3D4 JUMPI DUP1 PUSH1 0x1F LT PUSH2 0x3AB JUMPI PUSH2 0x100 DUP1 DUP4 SLOAD DIV MUL DUP4 MSTORE SWAP2 PUSH1 0x20 ADD SWAP2 PUSH2 0x3D4 JUMP JUMPDEST DUP3 ADD SWAP2 SWAP1 PUSH0 MSTORE PUSH1 0x20 PUSH0 KECCAK256 SWAP1 JUMPDEST DUP2 SLOAD DUP2 MSTORE SWAP1 PUSH1 0x1 ADD SWAP1 PUSH1 0x20 ADD DUP1 DUP4 GT PUSH2 0x3B7 JUMPI DUP3 SWAP1 SUB PUSH1 0x1F AND DUP3 ADD SWAP2 JUMPDEST POP POP POP POP POP DUP2 JUMP JUMPDEST JUMP JUMPDEST PUSH1 0xE DUP2 DUP2 SLOAD DUP2 LT PUSH2 0x3ED JUMPI PUSH0 DUP1 REVERT JUMPDEST SWAP1 PUSH0 MSTORE PUSH1 0x20 PUSH0 KECCAK256 SWAP1 PUSH1 0x20 SWAP2 DUP3 DUP3 DIV ADD SWAP2 SWAP1 MOD SWAP2 POP SLOAD SWAP1 PUSH2 0x100 EXP SWAP1 DIV PUSH1 0xF8 SHL DUP2 JUMP JUMPDEST PUSH1 0x1 DUP1 SLOAD PUSH2 0x41C SWAP1 PUSH2 0x8A0 JUMP JUMPDEST DUP1 PUSH1 0x1F ADD PUSH1 0x20 DUP1 SWAP2 DIV MUL PUSH1 0x20 ADD PUSH1 0x40 MLOAD SWAP1 DUP2 ADD PUSH1 0x40 MSTORE DUP1 SWAP3 SWAP2 SWAP1 DUP2 DUP2 MSTORE PUSH1 0x20 ADD DUP3 DUP1 SLOAD PUSH2 0x448 SWAP1 PUSH2 0x8A0 JUMP JUMPDEST DUP1 ISZERO PUSH2 0x493 JUMPI DUP1 PUSH1 0x1F LT PUSH2 0x46A JUMPI PUSH2 0x100 DUP1 DUP4 SLOAD DIV MUL DUP4 MSTORE SWAP2 PUSH1 0x20 ADD SWAP2 PUSH2 0x493 JUMP JUMPDEST DUP3 ADD SWAP2 SWAP1 PUSH0 MSTORE PUSH1 0x20 PUSH0 KECCAK256 SWAP1 JUMPDEST DUP2 SLOAD DUP2 MSTORE SWAP1 PUSH1 0x1 ADD SWAP1 PUSH1 0x20 ADD DUP1 DUP4 GT PUSH2 0x476 JUMPI DUP3 SWAP1 SUB PUSH1 0x1F AND DUP3 ADD SWAP2 JUMPDEST POP POP POP POP POP DUP2 JUMP JUMPDEST PUSH0 DUP1 SLOAD SWAP1 PUSH2 0x100 EXP SWAP1 DIV PUSH1 0xFF AND DUP2 JUMP JUMPDEST PUSH1 0xD PUSH1 0x20 MSTORE DUP1 PUSH0 MSTORE PUSH1 0x40 PUSH0 KECCAK256 PUSH0 SWAP2 POP SLOAD SWAP1 PUSH2 0x100 EXP SWAP1 DIV PUSH20 0xFFFFFFFFFFFFFFFFFFFFFFFFFFFFFFFFFFFFFFFF AND DUP2 JUMP JUMPDEST PUSH1 0x2 SLOAD DUP2 JUMP JUMPDEST PUSH0 DUP1 REVERT JUMPDEST PUSH0 DUP2 SWAP1 POP SWAP2 SWAP1 POP JUMP JUMPDEST PUSH2 0x4F7 DUP2 PUSH2 0x4E5 JUMP JUMPDEST DUP2 EQ PUSH2 0x501 JUMPI PUSH0 DUP1 REVERT JUMPDEST POP JUMP JUMPDEST PUSH0 DUP2 CALLDATALOAD SWAP1 POP PUSH2 0x512 DUP2 PUSH2 0x4EE JUMP JUMPDEST SWAP3 SWAP2 POP POP JUMP JUMPDEST PUSH0 PUSH1 0x20 DUP3 DUP5 SUB SLT ISZERO PUSH2 0x52D JUMPI PUSH2 0x52C PUSH2 0x4E1 JUMP JUMPDEST JUMPDEST PUSH0 PUSH2 0x53A DUP5 DUP3 DUP6 ADD PUSH2 0x504 JUMP JUMPDEST SWAP2 POP POP SWAP3 SWAP2 POP POP JUMP JUMPDEST PUSH2 0x54C DUP2 PUSH2 0x4E5 JUMP JUMPDEST DUP3 MSTORE POP POP JUMP JUMPDEST PUSH0 PUSH1 0x20 DUP3 ADD SWAP1 POP PUSH2 0x565 PUSH0 DUP4 ADD DUP5 PUSH2 0x543 JUMP JUMPDEST SWAP3 SWAP2 POP POP JUMP JUMPDEST PUSH0 PUSH20 0xFFFFFFFFFFFFFFFFFFFFFFFFFFFFFFFFFFFFFFFF DUP3 AND SWAP1 POP SWAP2 SWAP1 POP JUMP JUMPDEST PUSH0 PUSH2 0x594 DUP3 PUSH2 0x56B JUMP JUMPDEST SWAP1 POP SWAP2 SWAP1 POP JUMP JUMPDEST PUSH2 0x5A4 DUP2 PUSH2 0x58A JUMP JUMPDEST DUP3 MSTORE POP POP JUMP JUMPDEST PUSH0 PUSH1 0x20 DUP3 ADD SWAP1 POP PUSH2 0x5BD PUSH0 DUP4 ADD DUP5 PUSH2 0x59B JUMP JUMPDEST SWAP3 SWAP2 POP POP JUMP JUMPDEST PUSH0 DUP1 PUSH1 0x40 DUP4 DUP6 SUB SLT ISZERO PUSH2 0x5D9 JUMPI PUSH2 0x5D8 PUSH2 0x4E1 JUMP JUMPDEST JUMPDEST PUSH0 PUSH2 0x5E6 DUP6 DUP3 DUP7 ADD PUSH2 0x504 JUMP JUMPDEST SWAP3 POP POP PUSH1 0x20 PUSH2 0x5F7 DUP6 DUP3 DUP7 ADD PUSH2 0x504 JUMP JUMPDEST SWAP2 POP POP SWAP3 POP SWAP3 SWAP1 POP JUMP JUMPDEST PUSH0 PUSH32 0xFF00000000000000000000000000000000000000000000000000000000000000 DUP3 AND SWAP1 POP SWAP2 SWAP1 POP JUMP JUMPDEST PUSH2 0x635 DUP2 PUSH2 0x601 JUMP JUMPDEST DUP3 MSTORE POP POP JUMP JUMPDEST PUSH0 PUSH1 0x20 DUP3 ADD SWAP1 POP PUSH2 0x64E PUSH0 DUP4 ADD DUP5 PUSH2 0x62C JUMP JUMPDEST SWAP3 SWAP2 POP POP JUMP JUMPDEST PUSH32 0x4E487B7100000000000000000000000000000000000000000000000000000000 PUSH0 MSTORE PUSH1 0x21 PUSH1 0x4 MSTORE PUSH1 0x24 PUSH0 REVERT JUMPDEST PUSH1 0x3 DUP2 LT PUSH2 0x692 JUMPI PUSH2 0x691 PUSH2 0x654 JUMP JUMPDEST JUMPDEST POP JUMP JUMPDEST PUSH0 DUP2 SWAP1 POP PUSH2 0x6A2 DUP3 PUSH2 0x681 JUMP JUMPDEST SWAP2 SWAP1 POP JUMP JUMPDEST PUSH0 PUSH2 0x6B1 DUP3 PUSH2 0x695 JUMP JUMPDEST SWAP1 POP SWAP2 SWAP1 POP JUMP JUMPDEST PUSH2 0x6C1 DUP2 PUSH2 0x6A7 JUMP JUMPDEST DUP3 MSTORE POP POP JUMP JUMPDEST PUSH0 PUSH1 0x20 DUP3 ADD SWAP1 POP PUSH2 0x6DA PUSH0 DUP4 ADD DUP5 PUSH2 0x6B8 JUMP JUMPDEST SWAP3 SWAP2 POP POP JUMP JUMPDEST PUSH0 DUP2 MLOAD SWAP1 POP SWAP2 SWAP1 POP JUMP JUMPDEST PUSH0 DUP3 DUP3 MSTORE PUSH1 0x20 DUP3 ADD SWAP1 POP SWAP3 SWAP2 POP POP JUMP JUMPDEST DUP3 DUP2 DUP4 MCOPY PUSH0 DUP4 DUP4 ADD MSTORE POP POP POP JUMP JUMPDEST PUSH0 PUSH1 0x1F NOT PUSH1 0x1F DUP4 ADD AND SWAP1 POP SWAP2 SWAP1 POP JUMP JUMPDEST PUSH0 PUSH2 0x722 DUP3 PUSH2 0x6E0 JUMP JUMPDEST PUSH2 0x72C DUP2 DUP6 PUSH2 0x6EA JUMP JUMPDEST SWAP4 POP PUSH2 0x73C DUP2 DUP6 PUSH1 0x20 DUP7 ADD PUSH2 0x6FA JUMP JUMPDEST PUSH2 0x745 DUP2 PUSH2 0x708 JUMP JUMPDEST DUP5 ADD SWAP2 POP POP SWAP3 SWAP2 POP POP JUMP JUMPDEST PUSH0 PUSH1 0x20 DUP3 ADD SWAP1 POP DUP2 DUP2 SUB PUSH0 DUP4 ADD MSTORE PUSH2 0x768 DUP2 DUP5 PUSH2 0x718 JUMP JUMPDEST SWAP1 POP SWAP3 SWAP2 POP POP JUMP JUMPDEST PUSH0 DUP2 MLOAD SWAP1 POP SWAP2 SWAP1 POP JUMP JUMPDEST PUSH0 DUP3 DUP3 MSTORE PUSH1 0x20 DUP3 ADD SWAP1 POP SWAP3 SWAP2 POP POP JUMP JUMPDEST PUSH0 PUSH2 0x794 DUP3 PUSH2 0x770 JUMP JUMPDEST PUSH2 0x79E DUP2 DUP6 PUSH2 0x77A JUMP JUMPDEST SWAP4 POP PUSH2 0x7AE DUP2 DUP6 PUSH1 0x20 DUP7 ADD PUSH2 0x6FA JUMP JUMPDEST PUSH2 0x7B7 DUP2 PUSH2 0x708 JUMP JUMPDEST DUP5 ADD SWAP2 POP POP SWAP3 SWAP2 POP POP JUMP JUMPDEST PUSH0 PUSH1 0x20 DUP3 ADD SWAP1 POP DUP2 DUP2 SUB PUSH0 DUP4 ADD MSTORE PUSH2 0x7DA DUP2 DUP5 PUSH2 0x78A JUMP JUMPDEST SWAP1 POP SWAP3 SWAP2 POP POP JUMP JUMPDEST PUSH0 DUP2 ISZERO ISZERO SWAP1 POP SWAP2 SWAP1 POP JUMP JUMPDEST PUSH2 0x7F6 DUP2 PUSH2 0x7E2 JUMP JUMPDEST DUP3 MSTORE POP POP JUMP JUMPDEST PUSH0 PUSH1 0x20 DUP3 ADD SWAP1 POP PUSH2 0x80F PUSH0 DUP4 ADD DUP5 PUSH2 0x7ED JUMP JUMPDEST SWAP3 SWAP2 POP POP JUMP JUMPDEST PUSH0 DUP2 SWAP1 POP SWAP2 SWAP1 POP JUMP JUMPDEST PUSH2 0x827 DUP2 PUSH2 0x815 JUMP JUMPDEST DUP3 MSTORE POP POP JUMP JUMPDEST PUSH0 PUSH1 0x20 DUP3 ADD SWAP1 POP PUSH2 0x840 PUSH0 DUP4 ADD DUP5 PUSH2 0x81E JUMP JUMPDEST SWAP3 SWAP2 POP POP JUMP JUMPDEST PUSH32 0x4E487B7100000000000000000000000000000000000000000000000000000000 PUSH0 MSTORE PUSH1 0x32 PUSH1 0x4 MSTORE PUSH1 0x24 PUSH0 REVERT JUMPDEST PUSH32 0x4E487B7100000000000000000000000000000000000000000000000000000000 PUSH0 MSTORE PUSH1 0x22 PUSH1 0x4 MSTORE PUSH1 0x24 PUSH0 REVERT JUMPDEST PUSH0 PUSH1 0x2 DUP3 DIV SWAP1 POP PUSH1 0x1 DUP3 AND DUP1 PUSH2 0x8B7 JUMPI PUSH1 0x7F DUP3 AND SWAP2 POP JUMPDEST PUSH1 0x20 DUP3 LT DUP2 SUB PUSH2 0x8CA JUMPI PUSH2 0x8C9 PUSH2 0x873 JUMP JUMPDEST JUMPDEST POP SWAP2 SWAP1 POP JUMP INVALID LOG2 PUSH5 0x6970667358 0x22 SLT KECCAK256 TIMESTAMP PUSH23 0x12FB153825B1726AF9080CB8D5F06BEE30B855AB4EE54E JUMPI 0xD9 0x28 0xCF 0xE7 SWAP16 0xE7 PUSH5 0x736F6C6343 STOP ADDMOD BYTE STOP CALLER "
				},
				"gasEstimates": {
					"creation": {
						"codeDepositCost": "462000",
						"executionCost": "497",
						"totalCost": "462497"
					},
					"external": {
						"_address()": "2576",
						"_bool()": "2507",
						"_bytes()": "infinite",
						"_bytes1()": "2533",
						"_bytes1Array(uint256)": "6598",
						"_enum()": "2694",
						"_int()": "2513",
						"_mapping(uint256)": "2893",
						"_staticArray(uint256)": "infinite",
						"_string()": "infinite",
						"_uint()": "2470",
						"addArrayValue(uint256,uint256)": "infinite",
						"deleteArrayValue(uint256)": "5484",
						"fe()": "188"
					},
					"internal": {
						"fi()": "infinite"
					}
				},
				"methodIdentifiers": {
					"_address()": "18bad217",
					"_bool()": "9e6ba9c2",
					"_bytes()": "4f50ea8d",
					"_bytes1()": "29f789e9",
					"_bytes1Array(uint256)": "906afbba",
					"_enum()": "30c0826f",
					"_int()": "af45869e",
					"_mapping(uint256)": "a2ba3ee4",
					"_staticArray(uint256)": "12b7b142",
					"_string()": "9b267f09",
					"_uint()": "2543135b",
					"addArrayValue(uint256,uint256)": "1e117e22",
					"deleteArrayValue(uint256)": "143236a5",
					"fe()": "86ed6eac"
				}
			},
			"storageLayout": {
				"storage": [
					{
						"astId": 3,
						"contract": "solidy101/initial.sol:Initial",
						"label": "_bool",
						"offset": 0,
						"slot": "0",
						"type": "t_bool"
					},
					{
						"astId": 5,
						"contract": "solidy101/initial.sol:Initial",
						"label": "_string",
						"offset": 0,
						"slot": "1",
						"type": "t_string_storage"
					},
					{
						"astId": 7,
						"contract": "solidy101/initial.sol:Initial",
						"label": "_int",
						"offset": 0,
						"slot": "2",
						"type": "t_int256"
					},
					{
						"astId": 9,
						"contract": "solidy101/initial.sol:Initial",
						"label": "_uint",
						"offset": 0,
						"slot": "3",
						"type": "t_uint256"
					},
					{
						"astId": 11,
						"contract": "solidy101/initial.sol:Initial",
						"label": "_address",
						"offset": 0,
						"slot": "4",
						"type": "t_address"
					},
					{
						"astId": 18,
						"contract": "solidy101/initial.sol:Initial",
						"label": "_enum",
						"offset": 20,
						"slot": "4",
						"type": "t_enum(ActionSet)15"
					},
					{
						"astId": 30,
						"contract": "solidy101/initial.sol:Initial",
						"label": "_staticArray",
						"offset": 0,
						"slot": "5",
						"type": "t_array(t_uint256)8_storage"
					},
					{
						"astId": 34,
						"contract": "solidy101/initial.sol:Initial",
						"label": "_mapping",
						"offset": 0,
						"slot": "13",
						"type": "t_mapping(t_uint256,t_address)"
					},
					{
						"astId": 37,
						"contract": "solidy101/initial.sol:Initial",
						"label": "_bytes1Array",
						"offset": 0,
						"slot": "14",
						"type": "t_array(t_bytes1)dyn_storage"
					},
					{
						"astId": 39,
						"contract": "solidy101/initial.sol:Initial",
						"label": "_bytes1",
						"offset": 0,
						"slot": "15",
						"type": "t_bytes1"
					},
					{
						"astId": 41,
						"contract": "solidy101/initial.sol:Initial",
						"label": "_bytes",
						"offset": 0,
						"slot": "16",
						"type": "t_bytes_storage"
					}
				],
				"types": {
					"t_address": {
						"encoding": "inplace",
						"label": "address",
						"numberOfBytes": "20"
					},
					"t_array(t_bytes1)dyn_storage": {
						"base": "t_bytes1",
						"encoding": "dynamic_array",
						"label": "bytes1[]",
						"numberOfBytes": "32"
					},
					"t_array(t_uint256)8_storage": {
						"base": "t_uint256",
						"encoding": "inplace",
						"label": "uint256[8]",
						"numberOfBytes": "256"
					},
					"t_bool": {
						"encoding": "inplace",
						"label": "bool",
						"numberOfBytes": "1"
					},
					"t_bytes1": {
						"encoding": "inplace",
						"label": "bytes1",
						"numberOfBytes": "1"
					},
					"t_bytes_storage": {
						"encoding": "bytes",
						"label": "bytes",
						"numberOfBytes": "32"
					},
					"t_enum(ActionSet)15": {
						"encoding": "inplace",
						"label": "enum Initial.ActionSet",
						"numberOfBytes": "1"
					},
					"t_int256": {
						"encoding": "inplace",
						"label": "int256",
						"numberOfBytes": "32"
					},
					"t_mapping(t_uint256,t_address)": {
						"encoding": "mapping",
						"key": "t_uint256",
						"label": "mapping(uint256 => address)",
						"numberOfBytes": "32",
						"value": "t_address"
					},
					"t_string_storage": {
						"encoding": "bytes",
						"label": "string",
						"numberOfBytes": "32"
					},
					"t_uint256": {
						"encoding": "inplace",
						"label": "uint256",
						"numberOfBytes": "32"
					}
				}
			},
			"userdoc": {
				"kind": "user",
				"methods": {},
				"version": 1
			}
		}
	}
}